S01200004C43445F6472697665722E7372656354
S11300000C942A000C949F010C94C8010C94F101E7
S11300100C9447000C9447000C9447000C94470040
S11300200C9447000C9447000C9447000C94470030
S11300300C9447000C9447000C9447000C94470020
S11300400C9447000C9447000C9447000C94470010
S11300500C94470011241FBECFE5D8E0DEBFCDBF0E
S113006010E0A0E6B0E0E0E4F4E002C005900D92F8
S1130070A036B107D9F720E0A0E6B0E001C01D9298
S1130080AC36B207E1F70E9469000C941E020C948E
S11300900000CF93DF93C82FD62F61E00E94A50004
S11300A08C2F9D2FDF91CF910895FC0180810E94B8
S11300B0F90008958AE690E00E945500089586E6C6
S11300C090E00E945500089588E690E00E94550053
S11300D008950E941A020E9420010E94250180E0D6
S11300E00E9429010E9452010E94570180E00E944F
S11300F05B010E9484010E94890181E00E948D01BC
S113010061E080EA0E94490090936B0080936A004A
S113011061E081EA0E944900909367008093660041
S113012061E082EA0E94490090936900809368002C
S11301308AE590E00E944D018FE590E00E947F01E6
S113014084E690E00E949A01FFCF982F907F8F70F1
S1130150903B49F018F4903AA9F018C0903C41F053
S1130160903D59F013C0A8E3B0E0E7E3F0E00EC01F
S1130170A5E3B0E0E4E3F0E009C0A2E3B0E0E1E32A
S1130180F0E004C0ABE3B0E0EAE3F0E0613091F00A
S113019018F06230E1F00895408121E030E0B901C7
S11301A002C0660F771F8A95E2F7CB0180958423FE
S11301B080830895408121E030E0B90102C0660FD8
S11301C0771F8A95E2F7CB01842B808308954081C1
S11301D021E030E0B90102C0660F771F8A95E2F78B
S11301E0CB01962F9095942390839C91892B8C938B
S11301F00895982F907F282F2F70903B59F018F472
S1130200903A89F004C0903C41F0903D49F0E0E020
S1130210F0E00BC0E8E3F0E008C0E5E3F0E005C07F
S1130220E2E3F0E002C0EBE3F0E0308181E090E053
S113023002C0880F991F2A95E2F7832780830895C7
S113024060E082ED0E94A50008958BB780648BBFA7
S11302500895813069F028F0823089F08330B1F05C
S1130260089585B78E7F85BF85B78D7F85BF089537
S113027085B7816085BF85B78D7F85BF089585B7B4
S11302808E7F85BF85B7826085BF089585B78160FD
S113029085BF85B7826085BF08959093650080937C
S11302A06400089560E083ED0E94A50008958BB773
S11302B080688BBF0895813069F028F0823089F01E
S11302C08330B1F0089585B78B7F85BF85B7877F6D
S11302D085BF089585B7846085BF85B7877F85BF4F
S11302E0089585B78B7F85BF85B7886085BF0895DE
S11302F085B7846085BF85B7886085BF089590936E
S1130300630080936200089560E082EB0E94A50080
S113031008958BB780628BBF0895882319F08130CC
S113032029F0089584B78F7B84BF089584B78064CF
S113033084BF0895909361008093600008951F9294
S11303400F920FB60F9211242F933F934F935F9305
S11303506F937F938F939F93AF93BF93EF93FF9389
S1130360E0916400F0916500309709F00995FF91E0
S1130370EF91BF91AF919F918F917F916F915F9119
S11303804F913F912F910F900FBE0F901F90189592
S11303901F920F920FB60F9211242F933F934F93F6
S11303A05F936F937F938F939F93AF93BF93EF93D9
S11303B0FF93E0916200F0916300309709F0099592
S11303C0FF91EF91BF91AF919F918F917F916F9129
S11303D05F914F913F912F910F900FBE0F901F90FF
S11303E018951F920F920FB60F9211242F933F93DB
S11303F04F935F936F937F938F939F93AF93BF9329
S1130400EF93FF93E0916000F0916100309709F061
S11304100995FF91EF91BF91AF919F918F917F913A
S11304206F915F914F913F912F910F900FBE0F905D
S11304301F9018958FB780688FBF0895F894FFCFE9
S9030000FC
