:10000000D1C0D5C0D5C0D5C0D5C0D5C0D5C0D5C04C
:10001000D5C0D5C0D5C0D5C0D5C0D5C0D5C0D5C038
:10002000D5C0D4C0D3C0DF93CF9300D0CDB7DEB757
:1000300080E197E29093610080936000AAE3B0E0D2
:10004000EAE3F0E0808181608C93ABE3B0E0EBE326
:10005000F0E0808181608C93ABE3B0E0EBE3F0E013
:10006000908181E089278C931A82198205C0898149
:100070009A8101969A8389838091600090916100B2
:100080009C0189819A818217930788F3E5CFDF93DA
:10009000CF93CDB7DEB70E9452000E949C000E9411
:1000A0001300FFCFDF93CF93CDB7DEB72B970FB6FB
:1000B000F894DEBF0FBECDBF82ED91E09B878A87AB
:1000C00080E690E09987888720E630E080E690E03F
:1000D000A901481B590BCA019F838E831D821C8274
:1000E0001BC08A859B859B838A83EA81FB818491DF
:1000F00089838981E885F98580838A859B85019636
:100100009B878A87888599850196998788878C81BE
:100110009D8101969D838C832C813D818E819F8161
:1001200028173907F0F22B960FB6F894DEBF0FBEF2
:10013000CDBFCF91DF910895DF93CF9300D000D052
:1001400000D0CDB7DEB780E690E09E838D8320E6B9
:1001500030E080E690E0A901481B590BCA019C835E
:100160008B831A8219820EC0ED81FE818AE0808322
:100170008D819E8101969E838D8389819A810196CE
:100180009A83898329813A818B819C812817390739
:1001900058F326960FB6F894DEBF0FBECDBFCF91B1
:1001A000DF91089508E00EBF0FE50DBF70CF1895E1
:1001B00018951895189518951895189518951895D7
:1001C00018951895189518951895189518951895C7
:0201D000189580
:00000001FF
