S01200004C43445F6472697665722E7372656354
S11300000C942A000C9427010C9450010C9479014F
S11300100C9447000C9447000C9447000C94470040
S11300200C9447000C9447000C940D020C94BE01F0
S11300300C9447000C9447000C9447000C94470020
S11300400C9472000C9447000C9447000C944700E5
S11300500C94470011241FBECFE5D8E0DEBFCDBF0E
S113006010E0A0E6B0E0ECEBF4E002C005900D92E5
S1130070A036B107D9F720E0A0E6B0E001C01D9298
S1130080A437B207E1F70E945F000C945C020C9461
S11300900000CF93DF93C82FD62F61E00E94AC00FD
S11300A08C2F9D2FDF91CF910895FC0180810E94B8
S11300B00001089582E790E00E94550008950E948F
S11300C0A2010E94A8000E94A6018AE590E00E9475
S11300D0B90160E080EC0E94490090937300809322
S11300E07200FFCF1F920F920FB60F9211242F931D
S11300F03F934F935F936F937F938F939F93AF93AC
S1130100BF93EF93FF93E0916000F091610030970B
S113011071F084B165B170E0762F6627680F711DA8
S1130120072E000C880B990B309709F00995FF9165
S1130130EF91BF91AF919F918F917F916F915F915B
S11301404F913F912F910F900FBE0F901F901895D4
S113015080B78B7F80BF0895982F907F8F70903BDE
S113016049F018F4903AA9F018C0903C41F0903D41
S113017059F013C0A8E3B0E0E7E3F0E00EC0A5E354
S1130180B0E0E4E3F0E009C0A2E3B0E0E1E3F0E0D2
S113019004C0ABE3B0E0EAE3F0E0613091F018F0C2
S11301A06230E1F00895408121E030E0B90102C0FD
S11301B0660F771F8A95E2F7CB01809584238083AD
S11301C00895408121E030E0B90102C0660F771F35
S11301D08A95E2F7CB01842B80830895408121E046
S11301E030E0B90102C0660F771F8A95E2F7CB01B0
S11301F0962F9095942390839C91892B8C930895AA
S1130200982F907F282F2F70903B59F018F4903A34
S113021089F004C0903C41F0903D49F0E0E0F0E00A
S11302200BC0E8E3F0E008C0E5E3F0E005C0E2E37A
S1130230F0E002C0EBE3F0E0308181E090E002C046
S1130240880F991F2A95E2F78327808308951F92C8
S11302500F920FB60F9211242F933F934F935F93F6
S11302606F937F938F939F93AF93BF93EF93FF937A
S1130270E0916600F0916700309709F00995FF91CD
S1130280EF91BF91AF919F918F917F916F915F910A
S11302904F913F912F910F900FBE0F901F90189583
S11302A01F920F920FB60F9211242F933F934F93E7
S11302B05F936F937F938F939F93AF93BF93EF93CA
S11302C0FF93E0916400F0916500309709F009957F
S11302D0FF91EF91BF91AF919F918F917F916F911A
S11302E05F914F913F912F910F900FBE0F901F90F0
S11302F018951F920F920FB60F9211242F933F93CC
S11303004F935F936F937F938F939F93AF93BF9319
S1130310EF93FF93E0916200F0916300309709F04E
S11303200995FF91EF91BF91AF919F918F917F912B
S11303306F915F914F913F912F910F900FBE0F904E
S11303401F9018958FB780688FBF089583B78F7BF0
S113035083BF83B7877F83BF83B78F7C83BF80ECE2
S113036082BF83B7887F826083BF89B7816089BF7A
S11303700895909371008093700008951F920F92D6
S11303800FB60F9211242F933F934F935F936F9364
S11303907F938F939F93AF93BF93EF93FF9380913A
S11303A06C0090916D00A0916E00B0916F00019669
S11303B0A11DB11D80936C0090936D00A0936E00FD
S11303C0B0936F0083349F40A105B105A9F4109246
S11303D06C0010926D0010926E0010926F0080EC11
S11303E082BF8091700090917100892B29F0E09177
S11303F07000F09171000995FF91EF91BF91AF9159
S11304009F918F917F916F915F914F913F912F9128
S11304100F900FBE0F901F9018951F920F920FB65A
S11304200F9211242F933F934F935F936F937F9376
S11304308F939F93AF93BF93EF93FF938091680043
S113044090916900A0916A00B0916B000196A11D82
S1130450B11D8093680090936900A0936A00B093E3
S11304606B0083349F40A105B105A9F41092680084
S11304701092690010926A0010926B0080EC82BFA7
S11304808091700090917100892B29F0E0917000A7
S1130490F09171000995FF91EF91BF91AF919F91F8
S11304A08F917F916F915F914F913F912F910F9019
S10F04B00FBE0F901F901895F894FFCF1A
S9030000FC
