S01200004C43445F6472697665722E7372656354
S11300000C942A000C94E7000C9410010C94390110
S11300100C9447000C9447000C9466010C94470020
S11300200C9447000C944B020C9447000C9447002A
S11300300C9447000C94B1020C9447000C944700B4
S11300400C9464000C9447000C9447000C944700F3
S11300500C94470011241FBECFE5D8E0DEBFCDBF0E
S113006010E0A0E6B0E0EEE0F6E002C005900D92EC
S1130070A037B107D9F720E0A0E7B0E001C01D9296
S1130080AF37B207E1F70E9449000C9405030C94C2
S113009000000E9462010E94E3000E9471020E941B
S11300A07D0260E084E00E94890282E10E949B025A
S11300B083E10E949B020E94A50268EE73E080E047
S11300C090E00E949A00EBCF1F920F920FB60F920E
S11300D011242F933F934F935F936F937F938F9349
S11300E09F93AF93BF93EF93FF93E0917000F091D0
S11300F07100309771F084B165B170E0762F662796
S1130100680F711D072E000C880B990B309709F0AE
S11301100995FF91EF91BF91AF919F918F917F913D
S11301206F915F914F913F912F910F900FBE0F9060
S11301301F90189541C0683E23E072078105910520
S113014070F03FEF49E6E8E131504040E040E1F72C
S113015000C00000685E7340810991092DC06436B7
S113016071058105910570F0FFEF20E732E0F15051
S113017020403040E1F700C0000064567109810955
S113018091091AC06A3071058105910558F0EFE1B3
S1130190FEE43197F1F700C000006A50710981094B
S11301A091090AC0EFECF7E03197F1F700C00000C5
S11301B061507109810991096115710581059105E4
S11301C009F0B9CF089580B78B7F80BF08951F923F
S11301D00F920FB60F9211242F933F934F935F9377
S11301E06F937F938F939F93AF93BF93EF93FF93FB
S11301F0E0917600F0917700309709F00995FF912E
S1130200EF91BF91AF919F918F917F916F915F918A
S11302104F913F912F910F900FBE0F901F90189503
S11302201F920F920FB60F9211242F933F934F9367
S11302305F936F937F938F939F93AF93BF93EF934A
S1130240FF93E0917400F0917500309709F00995DF
S1130250FF91EF91BF91AF919F918F917F916F919A
S11302605F914F913F912F910F900FBE0F901F9070
S113027018951F920F920FB60F9211242F933F934C
S11302804F935F936F937F938F939F93AF93BF939A
S1130290EF93FF93E0917200F0917300309709F0AF
S11302A00995FF91EF91BF91AF919F918F917F91AC
S11302B06F915F914F913F912F910F900FBE0F90CF
S11302C01F9018958FB780688FBF08951F920F9263
S11302D00FB60F9211242F923F924F925F926F921A
S11302E07F928F929F92AF92BF92CF92DF92EF92C2
S11302F0FF920F931F932F933F934F935F936F93AB
S11303007F938F939F93AF93BF93CF93DF93EF9399
S1130310FF93809178008130B1F020F0823009F4AD
S113032055C096C081E0809378001DBC1CBC8EB57E
S11303308F7B8EBD1092790010927A0010927B0010
S113034010927C0085C082E0809378002CB43DB488
S11303502091790030917A0040917B0050917C008B
S1130360AFEFBFEF0E94E202DC01CB01282F392F4F
S11303704A2F5B2F60E070E080E090E0A22CB32C69
S1130380C12CD12CE12CF12C00E010E00E94ED02F4
S1130390209368003093690040936A0050936B0087
S11303A060936C0070936D0080936E0090936F0067
S11303B01DBC1CBC1092790010927A0010927B0034
S11303C010927C008EB580648EBD42C081E0809323
S11303D078002CB43DB42091790030917A0040919A
S11303E07B0050917C00AFEFBFEF0E94E202DC0182
S11303F0CB01282F392F4A2F5B2F60E070E080E07B
S113040090E0A22CB32CC12CD12CE12CF12C00E0D7
S113041010E00E94ED02209360003093610040934D
S1130420620050936300609364007093650080934E
S11304306600909367001DBC1CBC1092790010925A
S11304407A0010927B0010927C008EB58F7B8EBD5B
S1130450FF91EF91DF91CF91BF91AF919F918F91D8
S11304607F916F915F914F913F912F911F910F91C8
S1130470FF90EF90DF90CF90BF90AF909F908F90C0
S11304807F906F905F904F903F902F900F900FBE92
S11304900F901F90189578941F920F920FB60F9299
S11304A011248F939F93AF93BF9380917900909180
S11304B07A00A0917B00B0917C000196A11DB11D32
S11304C08093790090937A00A0937B00B0937C0092
S11304D0BF91AF919F918F910F900FBE0F901F907E
S11304E0189582E080B981B18E7F81B981B18D7F09
S11304F081B986B7846086BF089586B7806286BF57
S113050086B7806886BF06B607FEFDCF81B1887FB7
S1130510089590E0880F991F6170862B83B986B780
S11305208F7D86BF86B7806886BF06B607FEFDCF7F
S113053081B1887F089583B986B7806886BF06B67F
S113054007FEFDCF81B1887F089586B7806186BF9D
S113055086B7806886BF06B604FCFDCF81B1887F6C
S113056008951F920F920FB60F9211242F933F9369
S11305704F935F936F937F938F939F93AF93BF93A7
S1130580EF93FF9380917D0090917E00892B49F039
S11305906CB170E080E090E0E0917D00F0917E002D
S11305A00995FF91EF91BF91AF919F918F917F91A9
S11305B06F915F914F913F912F910F900FBE0F90CC
S11305C01F9018950E94F602A59F900DB49F900D60
S11305D0A49F800D911D112408952A0D3B1D4C1DCF
S11305E05D1D6E1D7F1D801F911F0895A29FB00188
S11305F0B39FC001A39F700D811D1124911DB29F53
S1110600700D811D1124911D0895F894FFCFF3
S113060E01000000000000000100000000000000D6
S9030000FC
