:100000000C942A000C946C010C9495010C94BE0184
:100010000C9447000C9447000C9447000C94470044
:100020000C9447000C9447000C9447000C94470034
:100030000C9447000C9447000C9447000C94470024
:100040000C9447000C9447000C9447000C94470014
:100050000C94470011241FBECFE5D8E0DEBFCDBF12
:1000600010E0A0E6B0E0EAEDF3E002C005900D92EA
:10007000A036B107D9F720E0A0E6B0E001C01D929C
:10008000AA36B207E1F70E9464000C94EB010C94CD
:100090000000CF93DF93C82FD62F61E00E948D0020
:1000A0008C2F9D2FDF91CF910895FC0180810E94BC
:1000B000E100089588E690E00E945500089586E6E4
:1000C00090E00E94550008950E94E7010E940801F7
:1000D0000E940D0181E00E9411010E943A010E94DC
:1000E0003F0181E00E94430161E080EA0E944900F3
:1000F000909369008093680061E081EA0E94490062
:1001000090936700809366008AE590E00E94350135
:100110008FE590E00E946701FFCF982F907F8F704E
:10012000903B49F018F4903AA9F018C0903C41F087
:10013000903D59F013C0A8E3B0E0E7E3F0E00EC053
:10014000A5E3B0E0E4E3F0E009C0A2E3B0E0E1E35E
:10015000F0E004C0ABE3B0E0EAE3F0E0613091F03E
:1001600018F06230E1F00895408121E030E0B901FB
:1001700002C0660F771F8A95E2F7CB018095842332
:1001800080830895408121E030E0B90102C0660F0C
:10019000771F8A95E2F7CB01842B808308954081F5
:1001A00021E030E0B90102C0660F771F8A95E2F7BF
:1001B000CB01962F9095942390839C91892B8C93BF
:1001C0000895982F907F282F2F70903B59F018F4A6
:1001D000903A89F004C0903C41F0903D49F0E0E055
:1001E000F0E00BC0E8E3F0E008C0E5E3F0E005C0B4
:1001F000E2E3F0E002C0EBE3F0E0308181E090E088
:1002000002C0880F991F2A95E2F7832780830895FB
:1002100062E082ED0E948D0008958BB780648BBFF1
:100220000895813069F028F0823089F08330B1F090
:10023000089585B78E7F85BF85B78D7F85BF08956B
:1002400085B7816085BF85B78D7F85BF089585B7E8
:100250008E7F85BF85B7826085BF089585B7816031
:1002600085BF85B7826085BF0895909365008093B0
:100270006400089562E083ED0E948D0008958BB7BD
:1002800080688BBF0895813069F028F0823089F052
:100290008330B1F0089585B78B7F85BF85B7877FA1
:1002A00085BF089585B7846085BF85B7877F85BF83
:1002B000089585B78B7F85BF85B7886085BF089512
:1002C00085B7846085BF85B7886085BF08959093A2
:1002D00063008093620008951F920F920FB60F92F1
:1002E00011242F933F934F935F936F937F938F933B
:1002F0009F93AF93BF93EF93FF93E0916400F091CE
:100300006500309709F00995FF91EF91BF91AF918A
:100310009F918F917F916F915F914F913F912F911D
:100320000F900FBE0F901F9018951F920F920FB64F
:100330000F9211242F933F934F935F936F937F936B
:100340008F939F93AF93BF93EF93FF93E0916200DE
:10035000F0916300309709F00995FF91EF91BF91FB
:10036000AF919F918F917F916F915F914F913F914D
:100370002F910F900FBE0F901F9018951F920F9204
:100380000FB60F9211242F933F934F935F936F9368
:100390007F938F939F93AF93BF93EF93FF93E091DE
:1003A0006000F0916100309709F00995FF91EF919D
:1003B000BF91AF919F918F917F916F915F914F917D
:1003C0003F912F910F900FBE0F901F9018958FB7F0
:0A03D00080688FBF0895F894FFCFF6
:00000001FF
