:100000000C942A000C9447000C9447000C94470071
:100010000C9447000C9447000C9447000C94470044
:100020000C9447000C9447000C9447000C94470034
:100030000C9447000C9447000C9447000C94470024
:100040000C9447000C9447000C9447000C94470014
:100050000C94470011241FBECFE5D8E0DEBFCDBF12
:1000600010E0A0E6B0E0EAE2F3E002C005900D92F5
:10007000A636B107D9F720E0A6E6B0E001C01D9290
:10008000A736B207E1F70E9449000C9493010C9443
:1000900000000E94DA001092660015C0F0E0EF59EF
:1000A000FF4F61E080810E94DE00E0916600F0E099
:1000B000EF59FF4F61E080810E943201809166001C
:1000C0008F5F80936600E0916600C0916000EC173E
:1000D00028F3C15000E0D0E0FE01EF59FF4F61E08E
:1000E00080810E94320110E0F801EF59FF4F60E07B
:1000F00080810E943201C80101962091600030E0A9
:10010000B9010E946B01082FCE010196B9010E942E
:100110006B01C82F68EB7BE080E090E00E949100CB
:10012000DACF41C0683E23E072078105910570F087
:100130003FEF49E6E8E131504040E040E1F700C0E0
:100140000000685E7340810991092DC06436710515
:100150008105910570F0FFEF20E732E0F15020407B
:100160003040E1F700C0000064567109810991092F
:100170001AC06A3071058105910558F0EFE1FEE47F
:100180003197F1F700C000006A50710981099109A7
:100190000AC0EFECF7E03197F1F700C000006150C2
:1001A000710981099109611571058105910509F0B0
:1001B000B9CF089580B78B7F80BF0895982F907F27
:1001C0008F70903B49F018F4903AA9F018C0903C19
:1001D00041F0903D59F013C0A8E3B0E0E7E3F0E050
:1001E0000EC0A5E3B0E0E4E3F0E009C0A2E3B0E0B4
:1001F000E1E3F0E004C0ABE3B0E0EAE3F0E061305B
:1002000091F018F06230E1F00895408121E030E093
:10021000B90102C0660F771F8A95E2F7CB0180957E
:10022000842380830895408121E030E0B90102C039
:10023000660F771F8A95E2F7CB01842B80830895A0
:10024000408121E030E0B90102C0660F771F8A9536
:10025000E2F7CB01962F9095942390839C91892B64
:100260008C930895982F907F8F70903B49F018F4ED
:10027000903A79F010C0903C31F0903D39F00BC0CD
:10028000E8E3F0E008C0E5E3F0E005C0E2E3F0E019
:1002900002C0EBE3F0E0662319F0613079F00895D5
:1002A000408121E030E0B90102C0660F771F8A95D6
:1002B000E2F7CB018095842380830895408121E07B
:1002C00030E0B90102C0660F771F8A95E2F7CB01D3
:1002D000842B8083089597FB072E16F4009407D093
:1002E00077FD09D00E947F0107FC05D03EF4909570
:1002F00081959F4F0895709561957F4F0895AA1B32
:10030000BB1B51E107C0AA1FBB1FA617B70710F000
:10031000A61BB70B881F991F5A95A9F78095909532
:0A032000BC01CD010895F894FFCF51
:06032A0004D7D6D5D40073
:00000001FF
