S01200004C43445F6472697665722E7372656354
S11300000C942A000C94F3010C941C020C944502E9
S11300100C9447000C9447000C9447000C94470040
S11300200C9447000C9447000C9447000C94470030
S11300300C9447000C9447000C9447000C94470020
S11300400C94EE000C9447000C9447000C94470069
S11300500C94470011241FBECFE5D8E0DEBFCDBF0E
S113006010E0A0E6B0E0E0E0F9E002C005900D92F7
S1130070A036B107D9F720E0A0E6B0E001C01D9298
S1130080A836B207E1F70E949F000C947E040C94FA
S113009000008F929F92AF92BF92CF92DF92EF9225
S11300A0FF92CF93C82F8AE5860F61E0853B08F461
S11300B060E09BE4699F800D1124682F70E080E06C
S11300C090E00E94850320E030E044E353E40E9482
S11300D0DB0220E030E040E85FE30E946F0220E0B2
S11300E030E04AE754E40E9411040E9454034B0197
S11300F05C010F2EF0E2CF2EFEE4DF2EE12CF12C7A
S1130100F02DC61AD70AE80AF90A61E08C2F0E947A
S1130110BA01C501B4010E94240160E08C2F0E9441
S1130120BA01C701B6010E942401CF91FF90EF905C
S1130130DF90CF90BF90AF909F908F9008950E94D2
S113014062010E94C40061E080EB0E94660180E0CD
S11301500E94D5000E94830320E030EC4FE754E472
S11301600E94DB0220E030E044E353E40E941104E7
S113017020E030E044EB52E40E946E020E944D0302
S113018080EB0E944900E3CF86B1806886B987B1CD
S11301908F73806487B986B1876086B987B18F7D94
S11301A087B986B18F7D86B9089597B1907E8F7196
S11301B0892B87B986B1806486B9349BFECF84B11C
S11301C065B170E0762F6627680F711D072E000C4D
S11301D0880B990B26B1206126B908951F920F92BE
S11301E00FB60F9211242F933F934F935F936F9306
S11301F07F938F939F93AF93BF93EF93FF93E0917C
S11302006000F0916100309771F084B165B170E0E5
S1130210762F6627680F711D072E000C880B990B2B
S1130220309709F00995FF91EF91BF91AF919F919C
S11302308F917F916F915F914F913F912F910F908B
S11302400FBE0F901F90189537C0683E23E07207C9
S11302508105910558F0EFECF7E03197F1F700C014
S11302600000685E73408109910926C064367105F7
S11302708105910558F0E7ECF0E03197F1F700C003
S11302800000645671098109910916C06A3071052C
S11302908105910548F0FAE1FA95F1F700C06A503A
S11302A071098109910908C022E02A95F1F700C07B
S11302B061507109810991096115710581059105E3
S11302C021F6089580B78B7F80BF0895982F907F83
S11302D08F70903B49F018F4903AA9F018C0903C04
S11302E041F0903D59F013C0A8E3B0E0E7E3F0E03B
S11302F00EC0A5E3B0E0E4E3F0E009C0A2E3B0E09F
S1130300E1E3F0E004C0ABE3B0E0EAE3F0E0613045
S113031091F018F06230E1F00895408121E030E07E
S1130320B90102C0660F771F8A95E2F7CB01809569
S1130330842380830895408121E030E0B90102C024
S1130340660F771F8A95E2F7CB01842B808308958B
S1130350408121E030E0B90102C0660F771F8A9521
S1130360E2F7CB01962F9095942390839C91892B4F
S11303708C930895982F907F8F70903B49F018F4D8
S1130380903A79F010C0903C31F0903D39F00BC0B8
S1130390E8E3F0E008C0E5E3F0E005C0E2E3F0E004
S11303A002C0EBE3F0E0662319F0613079F00895C0
S11303B0408121E030E0B90102C0660F771F8A95C1
S11303C0E2F7CB018095842380830895408121E066
S11303D030E0B90102C0660F771F8A95E2F7CB01BE
S11303E0842B808308951F920F920FB60F921124CD
S11303F02F933F934F935F936F937F938F939F9329
S1130400AF93BF93EF93FF93E0916600F091670081
S1130410309709F00995FF91EF91BF91AF919F91AA
S11304208F917F916F915F914F913F912F910F9099
S11304300FBE0F901F9018951F920F920FB60F9238
S113044011242F933F934F935F936F937F938F93D5
S11304509F93AF93BF93EF93FF93E0916400F09168
S11304606500309709F00995FF91EF91BF91AF9125
S11304709F918F917F916F915F914F913F912F91B8
S11304800F900FBE0F901F9018951F920F920FB6EA
S11304900F9211242F933F934F935F936F937F9306
S11304A08F939F93AF93BF93EF93FF93E091620079
S11304B0F0916300309709F00995FF91EF91BF9196
S11304C0AF919F918F917F916F915F914F913F91E8
S11304D02F910F900FBE0F901F9018955058BB2767
S11304E0AA270E9486020C94D7030E94C90338F0FD
S11304F00E94D00320F039F49F3F19F426F40C94A1
S1130500C6030EF4E095E7FB0C94C003E92F0E94A8
S1130510E80358F3BA17620773078407950720F0B6
S113052079F4A6F50C940A040EF4E0950B2EBA2F78
S1130530A02D0B01B90190010C01CA01A0011124E5
S1130540FF27591B99F0593F50F4503E68F11A1691
S1130550F040A22F232F342F4427585FF3CF469522
S113056037952795A795F0405395C9F77EF41F1644
S1130570BA0B620B730B840BBAF09150A1F0FF0F0E
S1130580BB1F661F771F881FC2F70EC0BA0F621FFA
S1130590731F841F48F4879577956795B795F795EA
S11305A09E3F08F0B0CF9395880F08F09927EE0F7F
S11305B09795879508950E94EF020C94D7030E94A3
S11305C0D00358F00E94C90340F029F45F3F29F09A
S11305D00C94C00351110C940B040C94C6030E9498
S11305E0E80368F39923B1F3552391F3951B550B55
S11305F0BB27AA2762177307840738F09F5F5F4FF2
S1130600220F331F441FAA1FA9F335D00E2E3AF030
S1130610E0E832D091505040E695001CCAF72BD048
S1130620FE2F29D0660F771F881FBB1F2617370799
S11306304807AB07B0E809F0BB0B802DBF01FF27CB
S113064093585F4F3AF09E3F510578F00C94C003E5
S11306500C940B045F3FE4F3983ED4F386957795AE
S11306606795B795F7959F5FC9F7880F911D969584
S1130670879597F90895E1E0660F771F881FBB1FE0
S1130680621773078407BA0720F0621B730B840B8D
S1130690BA0BEE1F88F7E09508950E9454036894FE
S11306A0B1110C940B0408950E94F00388F09F5735
S11306B098F0B92F9927B751B0F0E1F0660F771F82
S11306C0881F991F1AF0BA95C9F714C0B13091F078
S11306D00E940A04B1E008950C940A04672F782F4D
S11306E08827B85F39F0B93FCCF38695779567953D
S11306F0B395D9F73EF490958095709561957F4FA9
S11307008F4F9F4F0895E89409C097FB3EF490954E
S11307108095709561957F4F8F4F9F4F9923A9F0D6
S1130720F92F96E9BB279395F69587957795679565
S1130730B795F111F8CFFAF4BB0F11F460FF1BC0A9
S11307406F5F7F4F8F4F9F4F16C0882311F096E93C
S113075011C0772321F09EE8872F762F05C06623EA
S113076071F096E8862F70E060E02AF09A95660FA3
S1130770771F881FDAF7880F9695879597F908955C
S113078097F99F6780E870E060E008959FEF80EC40
S1130790089500240A9416161706180609060895E3
S11307A000240A9412161306140605060895092E49
S11307B00394000C11F4882352F0BB0F40F4BF2BB8
S11307C011F460FF04C06F5F7F4F8F4F9F4F0895F8
S11307D057FD9058440F551F59F05F3F71F04795EE
S11307E0880F97FB991F61F09F3F79F087950895D3
S11307F0121613061406551FF2CF4695F1DF08C0F2
S1130800161617061806991FF1CF8695710561050E
S113081008940895E894BB2766277727CB0197F9B6
S113082008950E9424040C94D7030E94C90338F04D
S11308300E94D00320F0952311F00C94C0030C9473
S1130840C60311240C940B040E94E80370F3959FD3
S1130850C1F3950F50E0551F629FF001729FBB27B3
S1130860F00DB11D639FAA27F00DB11DAA1F649F4F
S11308706627B00DA11D661F829F2227B00DA11D02
S1130880621F739FB00DA11D621F839FA00D611D88
S1130890221F749F3327A00D611D231F849F600DA9
S11308A0211D822F762F6A2F11249F5750409AF0D2
S11308B0F1F088234AF0EE0FFF1FBB1F661F771F5E
S11308C0881F91505040A9F79E3F510580F00C9429
S11308D0C0030C940B045F3FE4F3983ED4F3869575
S11308E077956795B795F795E7959F5FC1F7FE2BC9
S11308F0880F911D9695879597F90895F894FFCFE1
S9030000FC
