S01200004C43445F6472697665722E7372656354
S11300000C942A000C949F030C94C8030C94F103E1
S11300100C9447000C9447000C941E040C94470065
S11300200C9447000C9403050C9447000C9447006F
S11300300C9447000C944E050C9447000C94470014
S11300400C9451020C9447000C9447000C94470004
S11300500C94470011241FBECFE5D8E0DEBFCDBF0E
S113006010E0A0E6B0E0E8E4FBE002C005900D92E9
S1130070A837B107D9F720E0A8E7B0E001C01D9286
S1130080AF38B207E1F70E9410020C94A2050C9459
S11300900000AF92BF92CF92DF92EF92FF920F9344
S11300A01F93CF93DF93EC01B62EA22E6701780144
S11300B0642F89810E9466036A2D8A810E946603E7
S11300C0888185FD18C029C0212F30E043E050E02D
S11300D0421B530B8B2D90E002C0959587954A9552
S11300E0E2F7682F6170FE01E20FF31F84810E9422
S11300F066031F5F01C010E0143030F361E08B81B0
S11301000E94660368EE73E080E090E00E94D002F3
S113011060E08B810E94660352C06B2D661F6627C8
S1130120661F8C810E946603B6FA662760F98D818A
S11301300E946603B5FA662760F98E810E94660301
S1130140B4FA662760F98F810E94660361E08B81AF
S11301500E94660368EE73E080E090E00E94D002A3
S113016060E08B810E94660368EE73E080E090E0BB
S11301700E94D002B3FA662760F98C810E9466035C
S1130180B2FA662760F98D810E946603B1FA662788
S113019060F98E810E9466036B2D61708F810E94CD
S11301A0660361E08B810E94660368EE73E080E081
S11301B090E00E94D00260E08B810E946603C70138
S11301C0B60168517C4F8F4F9F4F0E94D002DF9140
S11301D0CF911F910F91FF90EF90DF90CF90BF9040
S11301E0AF900895DF92EF92FF920F931F93CF93F6
S11301F0DF93CDB7DEB760970FB6F894DEBF0FBEBE
S1130200CDBF182F062FD42E790168EE73E080E05D
S113021090E00E94D002DC860B871A8761E08D2D66
S11302200E94120361E0802F0E94120361E0812F7B
S11302300E94120310E012C0812F90E0F701E80F32
S1130240F91F2081ADE0B0E0AC0FBD1FA80FB91FAE
S11302502C9361E080810E9412031F5F143060F3CD
S113026089858F7D80648F77898717E2E12EF12C51
S113027000E010E020E040E068E2CE0109960E9430
S113028049008985837F8F7E8987E12CF12C870142
S113029020E040E068E0CE0109960E9449001AEF90
S11302A0E12E15E0F12E00E010E020E040E061E0F6
S11302B0CE0109960E94490020E040E062E0CE01B0
S11302C009960E944900898581608D7F898717E29C
S11302D0E12EF12C00E010E020E040E066E0CE01E9
S11302E009960E94490088E0FE013996DE011196C4
S11302F001900D928A95E1F729813A814B815C81C5
S11303006D817E818F81988560960FB6F894DEBFEB
S11303100FBECDBFDF91CF911F910F91FF90EF9052
S1130320DF900895EF92FF920F931F93FC01908149
S11303309460908393FB662760F970E0660F771FE3
S1130340929591706C60692BE12CF12C870120E06F
S113035040E0CF010E9449001F910F91FF90EF9060
S11303600895EF92FF920F931F93FC019081986080
S1130370908392FB662760F970E0660F771F660F23
S1130380771F929591706A60692BE12CF12C87019B
S113039020E040E0CF010E9449001F910F91FF909F
S11303A0EF900895EF92FF920F931F93FC019081B9
S11303B09061908392FB662760F970E0660F771F67
S11303C0660F771F93FB222720F930E0220F331F9B
S11303D06860262B622F6160E12CF12C870120E0FC
S11303E040E0CF010E9449001F910F91FF90EF90D0
S11303F00895EF92FF920F931F931BE2E12EF12CCD
S113040000E010E020E041E00E9449001F910F91BC
S1130410FF90EF90089587E890E00E94F901089515
S1130420CF93DF93CDB7DEB728970FB6F894DEBF2E
S11304300FBECDBF0E941A040E940E0388E0E0E7BD
S1130440F0E0DE01119601900D928A95E1F79E018C
S11304502F5F3F4F43EB62EB81EB0E94F200E7E832
S1130460F0E02083318342835383648375838683DE
S11304709783CF010E94920187E890E00E94D20105
S113048087E890E00E94B1010E9429058BE092E088
S11304900E94490568EE73E080E090E00E948702C4
S11304A0F9CF1F920F920FB60F9211242F933F93FF
S11304B04F935F936F937F938F939F93AF93BF9368
S11304C0EF93FF93E0917800F0917900309771F009
S11304D084B165B170E0762F6627680F711D072E11
S11304E0000C880B990B309709F00995FF91EF9157
S11304F0BF91AF919F918F917F916F915F914F9138
S11305003F912F910F900FBE0F901F90189541C0EF
S1130510683E23E072078105910570F03FEF43EDDB
S1130520E0E331504040E040E1F700C00000685E85
S11305307340810991092DC06436710581059105C7
S113054070F0FFEF21EE34E0F15020403040E1F74D
S113055000C0000064567109810991091AC06A300B
S113056071058105910558F0EFE3FCE93197F1F746
S113057000C000006A507109810991090AC0EFE9BD
S1130580FFE03197F1F700C0000061507109810963
S11305909109611571058105910509F0B9CF089597
S11305A037C0683E23E072078105910558F0EFE9F2
S11305B0FFE03197F1F700C00000685E73408109E5
S11305C0910926C0643671058105910558F0EFE85C
S11305D0F1E03197F1F700C0000064567109810918
S11305E0910916C06A3071058105910548F0F5E35B
S11305F0FA95F1F700006A5071098109910908C060
S113060025E02A95F1F700006150710981099109EB
S1130610611571058105910521F6089580B78B7FD9
S113062080BF0895982F907F8F70903B49F018F405
S1130630903AA9F018C0903C41F0903D59F013C095
S1130640A8E3B0E0E7E3F0E00EC0A5E3B0E0E4E344
S1130650F0E009C0A2E3B0E0E1E3F0E004C0ABE302
S1130660B0E0EAE3F0E0613091F018F06230E1F0DC
S11306700895408121E030E0B90102C0660F771F80
S11306808A95E2F7CB018095842380830895408185
S113069021E030E0B90102C0660F771F8A95E2F7C6
S11306A0CB01842B80830895408121E030E0B9019F
S11306B002C0660F771F8A95E2F7CB01962F9095BB
S11306C0942390839C91892B8C930895982F907FE9
S11306D08F70903B49F018F4903A79F010C0903C38
S11306E031F0903D39F00BC0E8E3F0E008C0E5E3F9
S11306F0F0E005C0E2E3F0E002C0EBE3F0E06623E3
S113070019F0613079F00895408121E030E0B901B9
S113071002C0660F771F8A95E2F7CB018095842388
S113072080830895408121E030E0B90102C0660F62
S1130730771F8A95E2F7CB01842B808308951F925B
S11307400F920FB60F9211242F933F934F935F9301
S11307506F937F938F939F93AF93BF93EF93FF9385
S1130760E0917E00F0917F00309709F00995FF91A8
S1130770EF91BF91AF919F918F917F916F915F9115
S11307804F913F912F910F900FBE0F901F9018958E
S11307901F920F920FB60F9211242F933F934F93F2
S11307A05F936F937F938F939F93AF93BF93EF93D5
S11307B0FF93E0917C00F0917D00309709F009955A
S11307C0FF91EF91BF91AF919F918F917F916F9125
S11307D05F914F913F912F910F900FBE0F901F90FB
S11307E018951F920F920FB60F9211242F933F93D7
S11307F04F935F936F937F938F939F93AF93BF9325
S1130800EF93FF93E0917A00F0917B00309709F029
S11308100995FF91EF91BF91AF919F918F917F9136
S11308206F915F914F913F912F910F900FBE0F9059
S11308301F9018958FB780688FBF08951F920F92ED
S11308400FB60F9211242F923F924F925F926F92A4
S11308507F928F929F92AF92BF92CF92DF92EF924C
S1130860FF920F931F932F933F934F935F936F9335
S11308707F938F939F93AF93BF93CF93DF93EF9324
S1130880FF93809180008130B1F020F0823009F430
S113089055C096C081E0809380001DBC1CBC8EB501
S11308A08F7B8EBD10928100109282001092830083
S11308B01092840085C082E0809380002CB43DB403
S11308C020918100309182004091830050918400F6
S11308D0AFEFBFEF0E947F05DC01CB01282F392F3A
S11308E04A2F5B2F60E070E080E090E0A22CB32CF4
S11308F0C12CD12CE12CF12C00E010E00E948A05DF
S1130900209368003093690040936A0050936B0011
S113091060936C0070936D0080936E0090936F00F1
S11309201DBC1CBC109281001092820010928300A6
S1130930109284008EB580648EBD42C081E08093A5
S113094080002CB43DB4209181003091820040910C
S1130950830050918400AFEFBFEF0E947F05DC015C
S1130960CB01282F392F4A2F5B2F60E070E080E005
S113097090E0A22CB32CC12CD12CE12CF12C00E062
S113098010E00E948A052093600030936100409338
S113099062005093630060936400709365008093D9
S11309A06600909367001DBC1CBC109281001092DD
S11309B0820010928300109284008EB58F7B8EBDCE
S11309C0FF91EF91DF91CF91BF91AF919F918F9163
S11309D07F916F915F914F913F912F911F910F9153
S11309E0FF90EF90DF90CF90BF90AF909F908F904B
S11309F07F906F905F904F903F902F900F900FBE1D
S1130A000F901F90189578941F920F920FB60F9223
S1130A1011248F939F93AF93BF9380918100909102
S1130A208200A0918300B09184000196A11DB11DA4
S1130A308093810090938200A0938300B0938400FC
S1130A40BF91AF919F918F910F900FBE0F901F9008
S1130A5018958BB18E7F8BB98AB180688AB98BB1B6
S1130A608D7F8BB98AB180618AB98AB188608AB96D
S1130A708AB18B7F8AB986E080BD87E689B910BCCC
S1130A8061E081ED0E94120360E080ED0E94120398
S1130A900895909386008093850008951F920F9285
S1130AA00FB60F9211242F933F934F935F936F933D
S1130AB07F938F939F93AF93BF93EF93FF93809113
S1130AC0850090918600892B49F06CB170E080E03C
S1130AD090E0E0918500F09186000995FF91EF91F7
S1130AE0BF91AF919F918F917F916F915F914F9142
S1130AF03F912F910F900FBE0F901F9018950E9459
S1130B009305A59F900DB49F900DA49F800D911DFA
S1130B10112408952A0D3B1D4C1D5D1D6E1D7F1D66
S1130B20801F911F0895A29FB001B39FC001A39F8E
S1130B30700D811D1124911DB29F700D811D112412
S10B0B40911D0895F894FFCF04
S1130B480100000000000000010000000000000097
S10B0B58A7A6A5A4A3A2A1A075
S9030000FC
