S01200004C43445F6472697665722E7372656354
S11300000C942A000C943F000C943F000C943F0085
S11300100C943F000C943F000C943F000C943F0060
S11300200C943F000C943F000C943F000C943F0050
S11300300C943F000C943F000C943F000C943F0040
S11300400C943F000C943F000C943F000C943F0030
S11300500C943F0011241FBECFE5D8E0DEBFCDBF16
S113006010E0A0E6B0E0E2E9F8E002C005900D92ED
S1130070A838B107D9F70E9487020C9447040C945E
S11300800000CF92DF92FF920F931F93CF93DF93E1
S1130090CDB7DEB760970FB6F894DEBF0FBECDBF05
S11300A06C018B01F12C11C02F2D30E0F601E20F11
S11300B0F31F8081E9E0F0E0EC0FFD1FE20FF31F76
S11300C0808362E00E94BA03F39483E08F1560F7A3
S11300D0F12C17C02F2D30E06801C20ED31EF6019B
S11300E08081EDE0F0E0EC0FFD1FE20FF31F808351
S11300F061E00E94BA0361E0F60180810E940E046F
S1130100F394F3E0FF1530F788E0FE013996DE0141
S1130110119601900D928A95E1F729813A814B81DC
S11301205C816D817E818F81988560960FB6F8948D
S1130130DEBF0FBECDBFDF91CF911F910F91FF9016
S1130140DF90CF900895AF92BF92CF92DF92EF925B
S1130150FF920F931F93CF93DF93EC01B62EA22E41
S113016067017801642F89810E940E046A2D8A81B7
S11301700E940E04888185FD18C029C0212F30E01B
S113018047E050E0421B530B8B2D90E002C0959545
S113019087954A95E2F7682F6170FE01E20FF31F1D
S11301A084810E940E041F5F01C010E0183030F3F8
S11301B061E08B810E940E0468EE73E080E090E0C1
S11301C00E94780360E08B810E940E0452C06B2D64
S11301D0661F6627661F8C810E940E04B6FA662786
S11301E060F98D810E940E04B5FA662760F98E814C
S11301F00E940E04B4FA662760F98F810E940E04EF
S113020061E08B810E940E0468EE73E080E090E070
S11302100E94780360E08B810E940E0468EE73E014
S113022080E090E00E947803B3FA662760F98C813D
S11302300E940E04B2FA662760F98D810E940E04B2
S1130240B1FA662760F98E810E940E046B2D6170ED
S11302508F810E940E0461E08B810E940E0468EE7F
S113026073E080E090E00E94780360E08B810E945C
S11302700E04C701B60168517C4F8F4F9F4F0E94F7
S11302807803DF91CF911F910F91FF90EF90DF9052
S1130290CF90BF90AF9008959F92AF92BF92CF92AC
S11302A0DF92EF92FF920F931F93CF93DF93CDB71B
S11302B0DEB72C970FB6F894DEBF0FBECDBF6C012E
S11302C0B62EA42E922E780168EE73E080E090E0C2
S11302D00E9478039C82AB82BA8261E0892D0E94DD
S11302E0BA0361E08A2D0E94BA0361E08B2D0E945B
S11302F0BA0310E012C0812F90E0F701E80FF91F54
S11303002081A5E0B0E0AC0FBD1FA80FB91F2C934E
S113031061E080810E94BA031F5F183060F3898115
S113032080668F77898317E2E12EF12C00E010E0DC
S113033020E040E068E3CE0101960E94A300898199
S1130340837F8F7E8983E12CF12C870120E040E0BC
S113035068E0CE0101960E94A3001AEFE12E15E099
S1130360F12E00E010E020E040E061E0CE010196D3
S11303700E94A30020E040E062E0CE0101960E94CA
S1130380A300898181608D7F898317E2E12EF12C9E
S113039000E010E020E040E066E0CE0101960E941B
S11303A0A3008CE0FE013196D60101900D928A954E
S11303B0E1F7C6012C960FB6F894DEBF0FBECDBF91
S11303C0DF91CF911F910F91FF90EF90DF90CF902D
S11303D0BF90AF909F900895EF92FF920F931F9359
S11303E0FC0190819460908393FB662760F970E030
S11303F0660F771F929591706C60692BE12CF12C3C
S1130400870120E040E0CF010E94A3001F910F91DB
S1130410FF90EF900895EF92FF920F931F93FC01CA
S113042090819B7F908393FB662760F970E0660F51
S1130430771F929591706860692BE12CF12C8701EC
S113044020E040E0CF010E94A3001F910F91FF9094
S1130450EF900895EF92FF920F931F931BE2E12E0A
S1130460F12C00E010E020E041E00E94A3001F9185
S11304700F91FF90EF900895EF92FF920F931F93C7
S113048020E4429F600D1124606817E2E12EF12CF4
S113049000E010E020E040E00E94A3001F910F91D3
S11304A0FF90EF900895AF92BF92CF92DF92EF92B8
S11304B0FF920F931F93CF936C015A01660F660F3F
S11304C0660F6F73606417E2E12EF12C00E010E018
S11304D020E040E00E94A300C0E008C0F501EC0F5A
S11304E0F11D6081C6010E942A02CF5FC830B0F3BB
S11304F040E060E0C6010E943C02CF911F910F9141
S1130500FF90EF90DF90CF90BF90AF900895CF937E
S1130510DF93CDB7DEB7C454D1090FB6F894DEBF6C
S11305200FBECDBF0E94B60388E0E0E6F0E0DE0136
S1130530119601900D928A95E1F78E010F5F1F4F7E
S113054023EB42EB61EBCE0109960E944C0180EC57
S11305508D8B81EC8E8B82EC8F8B83EC888F84EC7B
S1130560898F85EC8A8F86EC8B8F87EC8C8FBE010C
S1130570675E7F4FCE0145960E944100CE010996E9
S11305800E94EC0188E0E8E6F0E0DE019596019037
S11305900D928A95E1F7AE014B5D5F4F60E0CE01AD
S11305A009960E94530288E0E0E7F0E0DE019D96A0
S11305B001900D928A95E1F7AE01435D5F4F61E0D2
S11305C0CE0109960E94530288E0E8E7F0E0DE01DC
S11305D0D59601900D928A95E1F7AE014B5C5F4F81
S11305E062E0CE0109960E94530288E0E0E8F0E060
S11305F0DE01DD9601900D928A95E1F7AE01435C30
S11306005F4F63E0CE0109960E94530263E0CE017E
S113061009960E942A0262E0CE0109960E942A02EB
S113062061E0CE0109960E942A0260E0CE0109969B
S11306300E942A02CE0109960E94EC0164EF71E047
S113064080E090E00E942F03CE0109960E940B02E5
S113065064EF71E080E090E00E942F03EBCF41C093
S1130660683E23E072078105910570F03FEF49E68B
S1130670E8E131504040E040E1F700C00000685E2E
S11306807340810991092DC0643671058105910576
S113069070F0FFEF20E732E0F15020403040E1F706
S11306A000C0000064567109810991091AC06A30BA
S11306B071058105910558F0EFE1FEE43197F1F7FA
S11306C000C000006A507109810991090AC0EFEC69
S11306D0F7E03197F1F700C000006150710981091A
S11306E09109611571058105910509F0B9CF089546
S11306F037C0683E23E072078105910558F0EFEC9E
S1130700F7E03197F1F700C00000685E734081099B
S1130710910926C0643671058105910558F0E7EC0E
S1130720F0E03197F1F700C00000645671098109C7
S1130730910916C06A3071058105910548F0FAE106
S1130740FA95F1F700C06A5071098109910908C04E
S113075022E02A95F1F700C06150710981099109DD
S1130760611571058105910521F6089580B78B7F88
S113077080BF0895982F907F8F70903B49F018F4B4
S1130780903AA9F018C0903C41F0903D59F013C044
S1130790A8E3B0E0E7E3F0E00EC0A5E3B0E0E4E3F3
S11307A0F0E009C0A2E3B0E0E1E3F0E004C0ABE3B1
S11307B0B0E0EAE3F0E0613091F018F06230E1F08B
S11307C00895408121E030E0B90102C0660F771F2F
S11307D08A95E2F7CB018095842380830895408134
S11307E021E030E0B90102C0660F771F8A95E2F775
S11307F0CB01842B80830895408121E030E0B9014E
S113080002C0660F771F8A95E2F7CB01962F909569
S1130810942390839C91892B8C930895982F907F97
S11308208F70903B49F018F4903A79F010C0903CE6
S113083031F0903D39F00BC0E8E3F0E008C0E5E3A7
S1130840F0E005C0E2E3F0E002C0EBE3F0E0662391
S113085019F0613079F00895408121E030E0B90168
S113086002C0660F771F8A95E2F7CB018095842337
S113087080830895408121E030E0B90102C0660F11
S1130880771F8A95E2F7CB01842B80830895F8942F
S1050890FFCF94
S1130892A7A6A5A4A3A2A1A0000001011F00050010
S11308A200040A0A0704180000000015151E0000BF
S10B08B200020012150F000002
S9030000FC
