:100000000C942A000C9492040C94BB040C94E40409
:100010000C9447000C9447000C9447000C94470044
:100020000C9447000C9447000C9447000C94470034
:100030000C9447000C9447000C9447000C94470024
:100040000C9444030C9447000C9447000C94470014
:100050000C94470011241FBECFE5D8E0DEBFCDBF12
:1000600010E0A0E6B0E0ECEDFAE002C005900D92E1
:10007000A637B107D9F720E0A6E7B0E001C01D928E
:10008000A238B207E1F70E94AB020C946C050C9405
:100090000000AF92BF92CF92DF92EF92FF920F9348
:1000A0001F93CF93DF93EC01B62EA22E6701780148
:1000B000642F89810E9459046A2D8A810E94590403
:1000C000888185FD18C029C0212F30E043E050E031
:1000D000421B530B8B2D90E002C0959587954A9556
:1000E000E2F7682F6170FE01E20FF31F84810E9426
:1000F00059041F5F01C010E0143030F361E08B81C0
:100100000E94590468EE73E080E090E00E94C3030F
:1001100060E08B810E94590452C06B2D661F6627D8
:10012000661F8C810E945904B6FA662760F98D819A
:100130000E945904B5FA662760F98E810E9459041D
:10014000B4FA662760F98F810E94590461E08B81BF
:100150000E94590468EE73E080E090E00E94C303BF
:1001600060E08B810E94590468EE73E080E090E0CB
:100170000E94C303B3FA662760F98C810E94590478
:10018000B2FA662760F98D810E945904B1FA662798
:1001900060F98E810E9459046B2D61708F810E94DD
:1001A000590461E08B810E94590468EE73E080E09D
:1001B00090E00E94C30360E08B810E945904C70154
:1001C000B60168517C4F8F4F9F4F0E94C303DF9150
:1001D000CF911F910F91FF90EF90DF90CF90BF9044
:1001E000AF900895DF92EF92FF920F931F93CF93FA
:1001F000DF93CDB7DEB760970FB6F894DEBF0FBEC2
:10020000CDBF182F062FD42E790168EE73E080E061
:1002100090E00E94C303DC860B871A8761E08D2D76
:100220000E94050461E0802F0E94050461E0812F97
:100230000E94050410E012C0812F90E0F701E80F42
:10024000F91F2081ADE0B0E0AC0FBD1FA80FB91FB2
:100250002C9361E080810E9405041F5F143060F3DD
:1002600089858F7D80648F77898717E2E12EF12C55
:1002700000E010E020E040E068E2CE0109960E9434
:1002800049008985837F8F7E8987E12CF12C870146
:1002900020E040E068E0CE0109960E9449001AEF94
:1002A000E12E15E0F12E00E010E020E040E061E0FA
:1002B000CE0109960E94490020E040E062E0CE01B4
:1002C00009960E944900898581608D7F898717E2A0
:1002D000E12EF12C00E010E020E040E066E0CE01ED
:1002E00009960E94490088E0FE013996DE011196C8
:1002F00001900D928A95E1F729813A814B815C81C9
:100300006D817E818F81988560960FB6F894DEBFEF
:100310000FBECDBFDF91CF911F910F91FF90EF9056
:10032000DF900895EF92FF920F931F93FC0190814D
:100330009460908393FB662760F970E0660F771FE7
:10034000929591706C60692BE12CF12C870120E073
:1003500040E0CF010E9449001F910F91FF90EF9064
:100360000895EF92FF920F931F93FC019081986084
:10037000908392FB662760F970E0660F771F660F27
:10038000771F929591706A60692BE12CF12C87019F
:1003900020E040E0CF010E9449001F910F91FF90A3
:1003A000EF900895EF92FF920F931F93FC019081BD
:1003B0009061908392FB662760F970E0660F771F6B
:1003C000660F771F93FB222720F930E0220F331F9F
:1003D0006860262B622F6160E12CF12C870120E000
:1003E00040E0CF010E9449001F910F91FF90EF90D4
:1003F0000895EF92FF920F931F931BE2E12EF12CD1
:1004000000E010E020E041E00E9449001F910F91C0
:10041000FF90EF9008950F931F93CF93DF938C017C
:10042000EB0104C0C8010E94F901219668816111A5
:10043000F9CFDF91CF911F910F910895EF92FF9225
:100440000F931F931AEFE12E15E0F12E00E010E05C
:1004500020E040E062E00E9449001F910F91FF9070
:10046000EF9008958F929F92AF92BF92CF92DF92BA
:10047000EF92FF920F931F93CF93DF93EC01CB0189
:10048000BA0199234CF490958095709561957F4FB2
:100490008F4F9F4F01E001C000E010E0C12CD12C34
:1004A00076011F5FCC0CDD1CEE1CFF1C46015701C2
:1004B000880C991CAA1CBB1C880C991CAA1CBB1C70
:1004C000C80CD91CEA1CFB1C2AE030E040E050E0DC
:1004D0000E941105C60ED71EE81EF91E622F732F4B
:1004E000842F952F6115710581059105D1F6013095
:1004F000D1F46DE2CE010E94F90115C0C701B60129
:100500002AE030E040E050E00E941105922EA32E38
:10051000B42E052F605DCE010E94F901C92CDA2CA2
:10052000EB2CF02E11501111E9CFDF91CF911F91DB
:100530000F91FF90EF90DF90CF90BF90AF909F9082
:100540008F90089560937600709377008093780081
:10055000909379000895CF93DF93CDB7DEB760977E
:100560000FB6F894DEBF0FBECDBF64E170E080E04F
:1005700090E00E947A0388E0E0E6F0E0DE01199660
:1005800001900D928A95E1F79E01275F3F4F43EB63
:1005900062EB81EB0E94F20029833A834B835C83F8
:1005A0006D837E838F8398870E940D050E940104CE
:1005B0000E94210382EA92E00E943F030E943B03D3
:1005C000CE0101960E949201CE0101960E94D201B5
:1005D000CE0101960E94B10168E670E0CE0101965D
:1005E0000E940B02209176003091770040917800B4
:1005F00050917900A8E8B3E10E943005AB01BC013D
:10060000032E3AE076956795579547953A95D1F739
:10061000302DCE0101960E9432026FE670E0CE01CD
:1006200001960E940B02CE0101960E941E0264E612
:1006300070E080E090E00E947A0380E00E94320344
:10064000CBCF86B1806886B987B18F73806487B954
:1006500086B1876086B987B18F7D87B986B18F7D76
:1006600086B9089597B1907E8F71892B87B986B12D
:10067000806486B9089586B1886086B9089590939C
:100680007B0080937A0008951F920F920FB60F920D
:1006900011242F933F934F935F936F937F938F9387
:1006A0009F93AF93BF93EF93FF93E0917A00F09104
:1006B0007B00309771F084B165B170E0762F6627CA
:1006C000680F711D072E000C880B990B309709F0ED
:1006D0000995FF91EF91BF91AF919F918F917F917C
:1006E0006F915F914F913F912F910F900FBE0F909F
:1006F0001F90189541C0683E23E07207810591055F
:1007000070F03FEF49E6E8E131504040E040E1F76A
:1007100000C00000685E7340810991092DC06436F5
:1007200071058105910570F0FFEF20E732E0F1508F
:1007300020403040E1F700C0000064567109810993
:1007400091091AC06A3071058105910558F0EFE1F1
:10075000FEE43197F1F700C000006A507109810989
:1007600091090AC0EFECF7E03197F1F700C0000003
:100770006150710981099109611571058105910522
:1007800009F0B9CF089537C0683E23E072078105AC
:10079000910558F0EFECF7E03197F1F700C0000059
:1007A000685E73408109910926C064367105810530
:1007B000910558F0E7ECF0E03197F1F700C0000048
:1007C000645671098109910916C06A307105810565
:1007D000910548F0FAE1FA95F1F700C06A50710905
:1007E0008109910908C022E02A95F1F700C0615003
:1007F000710981099109611571058105910521F63C
:10080000089580B78B7F80BF0895982F907F8F7059
:10081000903B49F018F4903AA9F018C0903C41F090
:10082000903D59F013C0A8E3B0E0E7E3F0E00EC05C
:10083000A5E3B0E0E4E3F0E009C0A2E3B0E0E1E367
:10084000F0E004C0ABE3B0E0EAE3F0E0613091F047
:1008500018F06230E1F00895408121E030E0B90104
:1008600002C0660F771F8A95E2F7CB01809584233B
:1008700080830895408121E030E0B90102C0660F15
:10088000771F8A95E2F7CB01842B808308954081FE
:1008900021E030E0B90102C0660F771F8A95E2F7C8
:1008A000CB01962F9095942390839C91892B8C93C8
:1008B0000895982F907F8F70903B49F018F4903AEC
:1008C00079F010C0903C31F0903D39F00BC0E8E376
:1008D000F0E008C0E5E3F0E005C0E2E3F0E002C0CC
:1008E000EBE3F0E0662319F0613079F00895408180
:1008F00021E030E0B90102C0660F771F8A95E2F768
:10090000CB018095842380830895408121E030E0ED
:10091000B90102C0660F771F8A95E2F7CB01842BDD
:10092000808308951F920F920FB60F9211242F9378
:100930003F934F935F936F937F938F939F93AF9367
:10094000BF93EF93FF93E0918000F0918100309787
:1009500009F00995FF91EF91BF91AF919F918F9110
:100960007F916F915F914F913F912F910F900FBEAB
:100970000F901F9018951F920F920FB60F9211248F
:100980002F933F934F935F936F937F938F939F9397
:10099000AF93BF93EF93FF93E0917E00F0917F00C0
:1009A000309709F00995FF91EF91BF91AF919F9119
:1009B0008F917F916F915F914F913F912F910F9008
:1009C0000FBE0F901F9018951F920F920FB60F92A7
:1009D00011242F933F934F935F936F937F938F9344
:1009E0009F93AF93BF93EF93FF93E0917C00F091BF
:1009F0007D00309709F00995FF91EF91BF91AF917C
:100A00009F918F917F916F915F914F913F912F9126
:100A10000F900FBE0F901F9018958FB780688FBFF3
:100A20000895052E97FB1EF400940E94280557FD9B
:100A300007D00E943B0507FC03D04EF40C94280518
:100A400050954095309521953F4F4F4F5F4F0895FA
:100A500090958095709561957F4F8F4F9F4F08952A
:100A60000E945D05A59F900DB49F900DA49F800DE1
:100A7000911D11240895A1E21A2EAA1BBB1BFD0192
:100A80000DC0AA1FBB1FEE1FFF1FA217B307E4076D
:100A9000F50720F0A21BB30BE40BF50B661F771FC5
:100AA000881F991F1A9469F76095709580959095A5
:100AB0009B01AC01BD01CF010895A29FB001B39F7E
:100AC000C001A39F700D811D1124911DB29F700D57
:0C0AD000811D1124911D0895F894FFCFA2
:100ADC00A7A6A5A4A3A2A1A054454D503A2000203E
:060AEC0020202020000084
:00000001FF
