S01200004C43445F6472697665722E7372656354
S11300000C942A000C9423020C944C020C94750258
S11300100C9447000C9447000C9447000C94470040
S11300200C9447000C9447000C9447000C94470030
S11300300C9447000C9447000C9447000C94470020
S11300400C9447000C9447000C9447000C94470010
S11300500C94470011241FBECFE5D8E0DEBFCDBF0E
S113006010E0A0E6B0E0E8E4F5E002C005900D92EF
S1130070A836B107D9F720E0A8E6B0E001C01D9288
S1130080AF36B207E1F70E9486000C94A2020C94EA
S11300900000CF93DF93C82FD62F61E00E947B012D
S11300A08C2F9D2FDF91CF910895FC012181222374
S11300B039F0213051F461E080810E94CF0108952C
S11300C060E0FC0180810E94CF010895FC01218140
S11300D0222339F0213051F460E080810E94CF0165
S11300E0089561E0FC0180810E94CF010895809110
S11300F0680090E0019681709078992324F4019728
S11301008E6F9F6F0196809368000895CF93DF935D
S1130110CDB7DEB768970FB6F894DEBF0FBECDBF7C
S113012088E0E0E6F0E0DE01119601900D928A95F8
S1130130E1F70E949E020E9408020E940D0283E0E1
S11301400E94110287E790E00E941E02F12C18C061
S11301508F2D90E0E1E0F0E0EC0FFD1FE80FF91FB8
S1130160880F991F01E010E00C0F1D1F080F191FC5
S113017061E080810E944900F80191878087F394AF
S1130180F7E0FF1528F700E080916800811123C093
S113019010E0C801880F991F29E030E02C0F3D1FA3
S11301A0820F931F0E946600C801019687709078A1
S11301B0992324F40197886F9F6F0196082F99273C
S11301C0880F991FE9E0F0E0EC0FFD1F8E0F9F1FD1
S11301D00E94550040C010E0C801880F991F29E013
S11301E030E02C0F3D1F820F931F0E94660087E0B2
S11301F090E0801B910B880F991FE9E0F0E0EC0F71
S1130200FD1F8E0F9F1F0E946600C8010196837018
S11302109078992324F401978C6F9F6F0196082F8F
S11302207C01FF24C701880F991F29E030E02C0FBF
S11302303D1F820F931F0E94550087E090E08E19A6
S11302409F09880F991FE9E0F0E0EC0FFD1F8E0F66
S11302509F1F0E94550060E971E080E090E00E94D9
S1130260320192CF41C0683E23E0720781059105B7
S113027070F03FEF49E6E8E131504040E040E1F7FB
S113028000C00000685E7340810991092DC0643686
S113029071058105910570F0FFEF20E732E0F15020
S11302A020403040E1F700C0000064567109810924
S11302B091091AC06A3071058105910558F0EFE182
S11302C0FEE43197F1F700C000006A50710981091A
S11302D091090AC0EFECF7E03197F1F700C0000094
S11302E061507109810991096115710581059105B3
S11302F009F0B9CF0895982F907F8F70903B49F003
S113030018F4903AA9F018C0903C41F0903D59F08F
S113031013C0A8E3B0E0E7E3F0E00EC0A5E3B0E06B
S1130320E4E3F0E009C0A2E3B0E0E1E3F0E004C0FC
S1130330ABE3B0E0EAE3F0E0613091F018F0623052
S1130340E1F00895408121E030E0B90102C0660F78
S1130350771F8A95E2F7CB018095842380830895E3
S1130360408121E030E0B90102C0660F771F8A9511
S1130370E2F7CB01842B80830895408121E030E0B3
S1130380B90102C0660F771F8A95E2F7CB01962F59
S11303909095942390839C91892B8C930895982F06
S11303A0907F8F70903B49F018F4903A79F010C028
S11303B0903C31F0903D39F00BC0E8E3F0E008C028
S11303C0E5E3F0E005C0E2E3F0E002C0EBE3F0E0D7
S11303D0662319F0613079F00895408121E030E01E
S11303E0B90102C0660F771F8A95E2F7CB018095A9
S11303F0842380830895408121E030E0B90102C064
S1130400660F771F8A95E2F7CB01842B80830895CA
S113041062E082EB0E947B0108958BB780628BBF00
S11304200895882319F0813029F0089584B78F7BCB
S113043084BF089584B7806484BF089590936A004C
S11304408093690008951F920F920FB60F921124A2
S11304502F933F934F935F936F937F938F939F93C8
S1130460AF93BF93EF93FF93E0916D00F0916E0013
S1130470309709F00995FF91EF91BF91AF919F914A
S11304808F917F916F915F914F913F912F910F9039
S11304900FBE0F901F9018951F920F920FB60F92D8
S11304A011242F933F934F935F936F937F938F9375
S11304B09F93AF93BF93EF93FF93E0916B00F09101
S11304C06C00309709F00995FF91EF91BF91AF91BE
S11304D09F918F917F916F915F914F913F912F9158
S11304E00F900FBE0F901F9018951F920F920FB68A
S11304F00F9211242F933F934F935F936F937F93A6
S11305008F939F93AF93BF93EF93FF93E091690011
S1130510F0916A00309709F00995FF91EF91BF912E
S1130520AF919F918F917F916F915F914F913F9187
S11305302F910F900FBE0F901F9018958FB7806862
S10B05408FBF0895F894FFCF6A
S10B0548C0C1C2C3C4C5C6C78B
S9030000FC
