:100000000C942A000C9462010C948B010C94B401A2
:100010000C9447000C9447000C94E1010C944700A9
:100020000C9447000C94C6020C940A030C944700ED
:100030000C9447000C9458030C9447000C94470010
:100040000C94AD000C9447000C9447000C944700AE
:100050000C94470011241FBECFE5D8E0DEBFCDBF12
:1000600010E0A0E6B0E0ECEDF8E002C005900D92E3
:10007000A037B107D9F720E0A0E7B0E001C01D929A
:10008000A03FB207E1F70E9469000C946C040C9445
:100090000000CF93DF93C82FD62F61E00E94E700C6
:1000A0008C2F9D2FDF91CF910895FC0180810E94BC
:1000B0003B0108958EEE90E00E94550008958AEE6F
:1000C00090E00E94550008958CEE90E00E9455004B
:1000D000089561E080EC0E9449009093EF008093C6
:1000E000EE0061E080ED0E9449009093EB00809368
:1000F000EA0061E087ED0E9449009093ED00809353
:10010000EC000E94DD010E94E3000E94DC0300E09D
:1001100010E0980144EF51E060E070E08AE590E083
:100120000E94E30308EE13E020E030E048EE53E0E5
:1001300060E070E08FE590E00E94E30308EB1BE0D5
:1001400020E030E04CED55E060E070E084E690E0C7
:100150000E94E3030E944604FFCF1F920F920FB646
:100160000F9211242F933F934F935F936F937F933D
:100170008F939F93AF93BF93EF93FF93E0917000A2
:10018000F0917100309771F084B165B170E0762F15
:100190006627680F711D072E000C880B990B30978E
:1001A00009F00995FF91EF91BF91AF919F918F91C8
:1001B0007F916F915F914F913F912F910F900FBE63
:1001C0000F901F90189580B78B7F80BF0895982F50
:1001D000907F8F70903B49F018F4903AA9F018C0C6
:1001E000903C41F0903D59F013C0A8E3B0E0E7E344
:1001F000F0E00EC0A5E3B0E0E4E3F0E009C0A2E364
:10020000B0E0E1E3F0E004C0ABE3B0E0EAE3F0E04B
:10021000613091F018F06230E1F00895408121E002
:1002200030E0B90102C0660F771F8A95E2F7CB0173
:100230008095842380830895408121E030E0B901D6
:1002400002C0660F771F8A95E2F7CB01842B80836B
:100250000895408121E030E0B90102C0660F771FA8
:100260008A95E2F7CB01962F9095942390839C91E9
:10027000892B8C930895982F907F282F2F70903B77
:1002800059F018F4903A89F004C0903C41F0903D48
:1002900049F0E0E0F0E00BC0E8E3F0E008C0E5E39F
:1002A000F0E005C0E2E3F0E002C0EBE3F0E0308113
:1002B00081E090E002C0880F991F2A95E2F783271A
:1002C000808308951F920F920FB60F9211242F93DF
:1002D0003F934F935F936F937F938F939F93AF93CE
:1002E000BF93EF93FF93E0917600F0917700309702
:1002F00009F00995FF91EF91BF91AF919F918F9177
:100300007F916F915F914F913F912F910F900FBE11
:100310000F901F9018951F920F920FB60F921124F5
:100320002F933F934F935F936F937F938F939F93FD
:10033000AF93BF93EF93FF93E0917400F09175003A
:10034000309709F00995FF91EF91BF91AF919F917F
:100350008F917F916F915F914F913F912F910F906E
:100360000FBE0F901F9018951F920F920FB60F920D
:1003700011242F933F934F935F936F937F938F93AA
:100380009F93AF93BF93EF93FF93E0917200F0912F
:100390007300309709F00995FF91EF91BF91AF91EC
:1003A0009F918F917F916F915F914F913F912F918D
:1003B0000F900FBE0F901F9018958FB780688FBF5A
:1003C00008951F920F920FB60F9211242F923F9211
:1003D0004F925F926F927F928F929F92AF92BF9255
:1003E000CF92DF92EF92FF920F931F932F933F9341
:1003F0004F935F936F937F938F939F93AF93BF932D
:10040000CF93DF93EF93FF93809178008130B1F029
:1004100020F0823009F455C096C081E080937800C6
:100420001DBC1CBC8EB58F7B8EBD109279001092C6
:100430007A0010927B0010927C0085C082E080934D
:1004400078002CB43DB42091790030917A0040912D
:100450007B0050917C00AFEFBFEF0E944904DC01AC
:10046000CB01282F392F4A2F5B2F60E070E080E00E
:1004700090E0A22CB32CC12CD12CE12CF12C00E06B
:1004800010E00E9454042093680030936900409368
:100490006A0050936B0060936C0070936D008093C2
:1004A0006E0090936F001DBC1CBC109279001092DE
:1004B0007A0010927B0010927C008EB580648EBD15
:1004C00042C081E0809378002CB43DB42091790043
:1004D00030917A0040917B0050917C00AFEFBFEFEC
:1004E0000E944904DC01CB01282F392F4A2F5B2FB2
:1004F00060E070E080E090E0A22CB32CC12CD12C05
:10050000E12CF12C00E010E00E94540420936000E4
:1005100030936100409362005093630060936400E5
:100520007093650080936600909367001DBC1CBCAF
:100530001092790010927A0010927B0010927C0049
:100540008EB58F7B8EBDFF91EF91DF91CF91BF91E3
:10055000AF919F918F917F916F915F914F913F915B
:100560002F911F910F91FF90EF90DF90CF90BF9050
:10057000AF909F908F907F906F905F904F903F9043
:100580002F900F900FBE0F901F90189578941F9288
:100590000F920FB60F9211248F939F93AF93BF9337
:1005A0008091790090917A00A0917B00B0917C00BD
:1005B0000196A11DB11D8093790090937A00A093BC
:1005C0007B00B0937C00BF91AF919F918F910F9072
:1005D0000FBE0F901F90189583B78F7B83BF83B793
:1005E000886083BF83B78F7C83BF88EC82BF8CBF5A
:1005F00083B7887F826083BF89B7826089BF08958F
:1006000083B7887F826083BF089590938200809330
:10061000810008951F920F920FB60F9211242F930D
:100620003F934F935F936F937F938F939F93AF937A
:10063000BF93EF93FF9380917D0090917E00A091F6
:100640007F00B09180000196A11DB11D80937D00B7
:1006500090937E00A0937F00B09380000697A10541
:10066000B105A9F410927D0010927E0010927F00D7
:100670001092800088EC82BF80918100909182006E
:10068000892B29F0E0918100F09182000995FF917A
:10069000EF91BF91AF919F918F917F916F915F91FA
:1006A0004F913F912F910F900FBE0F901F90189573
:1006B0001F920F920FB60F9211242F933F934F93D7
:1006C0005F936F937F938F939F93AF93BF93EF93BA
:1006D000FF938091830090918400892B49F06CB145
:1006E00070E080E090E0E0918300F0918400099553
:1006F000FF91EF91BF91AF919F918F917F916F91FA
:100700005F914F913F912F910F900FBE0F901F90CF
:1007100018951F93CF93DF9310E045C0812F90E091
:10072000FC01EE0FFF1F9C01220F331F220F331F0E
:10073000220F331FE20FF31FEA57FF4F4681578105
:1007400060857185411551056105710581F0FC01D8
:10075000EE0FFF1FE20FF31FEA57FF4F4150510901
:100760006109710946835783608771871BC0EC015B
:10077000CC0FDD1F880F991F880F991F880F991FB5
:10078000C80FD91FCA57DF4FE881F98109958A81BF
:100790009B81AC81BD810197A109B1098E839F83A3
:1007A000A887B9871F5F80918500181708F4B6CF16
:1007B000DF91CF911F9108950E94EC0289E893E0A8
:1007C0000E94050308958F929F92AF92BF92CF929D
:1007D000DF92EF92FF920F931F93CF93DC01C091B2
:1007E0008500CA30D0F046C0C601880F991F880F17
:1007F000991F880F991FF601EE0FFF1FE80FF91FD1
:10080000EA57FF4F808191818A179B0791F08FEF04
:10081000C81AD80AE80AF80A03C0C12CD12C7601FC
:100820008C2E912CA12CB12CC814D904EA04FB0401
:10083000D8F2F601EE0FFF1FC601880F991F880F2F
:10084000991F880F991F8E0F9F1FFC01EA57FF4FBA
:10085000B183A083428353836483758306831783A4
:1008600020873187C814D904EA04FB0419F4CF5F48
:10087000C0938500CF911F910F91FF90EF90DF9073
:10088000CF90BF90AF909F908F9008950E940003EB
:1008900008950E945D04A59F900DB49F900DA49FA4
:1008A000800D911D112408952A0D3B1D4C1D5D1DC9
:1008B0006E1D7F1D801F911F0895A29FB001B39FE1
:1008C000C001A39F700D811D1124911DB29F700D59
:0C08D000811D1124911D0895F894FFCFA4
:1008DC00010000000000000001000000000000000A
:00000001FF
