:100000000C942A000C943F000C943F000C943F0089
:100010000C943F000C943F000C943F000C943F0064
:100020000C943F000C943F000C943F000C943F0054
:100030000C943F000C943F000C943F000C943F0044
:100040000C943F000C943F000C943F000C943F0034
:100050000C943F0011241FBECFE5D8E0DEBFCDBF1A
:1000600010E0A0E6B0E0E0E8F8E002C005900D92F4
:10007000A838B107D9F70E942C020C943E040C94C6
:100080000000AF92BF92CF92DF92EF92FF920F9358
:100090001F93CF93DF93EC01B62EA22E6701780158
:1000A000642F89810E9405046A2D8A810E940504BB
:1000B000888185FD18C029C0212F30E047E050E03D
:1000C000421B530B8B2D90E002C0959587954A9566
:1000D000E2F7682F6170FE01E20FF31F84810E9436
:1000E00005041F5F01C010E0183030F361E08B8120
:1000F0000E94050468EE73E080E090E00E946F03C8
:1001000060E08B810E94050452C06B2D661F66273C
:10011000661F8C810E940504B6FA662760F98D81FE
:100120000E940504B5FA662760F98E810E940504D5
:10013000B4FA662760F98F810E94050461E08B8123
:100140000E94050468EE73E080E090E00E946F0377
:1001500060E08B810E94050468EE73E080E090E02F
:100160000E946F03B3FA662760F98C810E94050430
:10017000B2FA662760F98D810E940504B1FA6627FC
:1001800060F98E810E9405046B2D61708F810E9441
:10019000050461E08B810E94050468EE73E080E055
:1001A00090E00E946F0360E08B810E940504C7010C
:1001B000B60168517C4F8F4F9F4F0E946F03DF91B4
:1001C000CF911F910F91FF90EF90DF90CF90BF9054
:1001D000AF9008959F92AF92BF92CF92DF92EF922D
:1001E000FF920F931F93CF93DF93CDB7DEB72C977A
:1001F0000FB6F894DEBF0FBECDBF6C01B62EA42E95
:10020000922E780168EE73E080E090E00E946F0328
:100210009C82AB82BA8261E0892D0E94B10361E0C9
:100220008A2D0E94B10361E08B2D0E94B10310E082
:1002300012C0812F90E0F701E80FF91F2081A5E09F
:10024000B0E0AC0FBD1FA80FB91F2C9361E08081F7
:100250000E94B1031F5F183060F3898180668F7739
:10026000898317E2E12EF12C00E010E020E040E06D
:1002700068E3CE0101960E9441008981837F8F7ED1
:100280008983E12CF12C870120E040E068E0CE0179
:1002900001960E9441001AEFE12E15E0F12E00E0D8
:1002A00010E020E040E061E0CE0101960E944100B4
:1002B00020E040E062E0CE0101960E944100898189
:1002C00081608D7F898317E2E12EF12C00E010E040
:1002D00020E040E066E0CE0101960E9441008CE003
:1002E000FE013196D60101900D928A95E1F7C60183
:1002F0002C960FB6F894DEBF0FBECDBFDF91CF9125
:100300001F910F91FF90EF90DF90CF90BF90AF9033
:100310009F900895EF92FF920F931F93FC0190819D
:100320009460908393FB662760F970E0660F771FF7
:10033000929591706C60692BE12CF12C870120E083
:1003400040E0CF010E9441001F910F91FF90EF907C
:100350000895EF92FF920F931F931BE2E12EF12C71
:1003600000E010E020E041E00E9441001F910F9169
:10037000FF90EF900895EF92FF920F931F9320E468
:10038000429F600D1124606817E2E12EF12C00E01D
:1003900010E020E040E00E9441001F910F91FF908B
:1003A000EF900895EF92FF920F931F9317E2E12EC3
:1003B000F12C00E010E020E040E06CE10E94410000
:1003C0001F910F91FF90EF900895EF92FF920F937E
:1003D0001F9317E2E12EF12C00E010E020E040E056
:1003E00068E10E9441001F910F91FF90EF900895E6
:1003F000AF92BF92CF92DF92EF92FF920F931F9333
:10040000CF936C015A01660F660F660F6F736064BD
:1004100017E2E12EF12C00E010E020E040E00E9425
:100420004100C0E008C0F501EC0FF11D6081C6017C
:100430000E94A901CF5FC830B0F340E060E0C60180
:100440000E94BB01CF911F910F91FF90EF90DF9021
:10045000CF90BF90AF900895CF93DF93CDB7DEB725
:10046000CC54D1090FB6F894DEBF0FBECDBF0E94A9
:10047000AD0388E0E0E6F0E0DE01D99601900D9250
:100480008A95E1F78E01075C1F4F23EB42EB61EB8E
:10049000CE018F5B9F4F0E94EA008CE0FE01EF5B74
:1004A000FF4FDE01119601900D928A95E1F724EB42
:1004B00042EB61EBCE018F5B9F4F0E94EA008CE024
:1004C000FE01EF5BFF4FDE011D9601900D928A95B4
:1004D000E1F7CE0101960E948A01CE010D960E949D
:1004E0008A0188E0E8E6F0E0DE01D19601900D9205
:1004F0008A95E1F788E0E0E7F0E0DE019996019067
:100500000D928A95E1F788E0E8E7F0E0DE01919648
:1005100001900D928A95E1F788E0E0E8F0E0DE01D5
:10052000599601900D928A95E1F7AE014F5C5F4FAD
:1005300060E0CE0101960E94F801AE01475D5F4F79
:1005400061E0CE0101960E94F801AE014F5D5F4F60
:1005500062E0CE0101960E94F801AE01475E5F4F56
:1005600063E0CE0101960E94F801AE014F5C5F4F3F
:1005700060E0CE010D960E94F801AE01475D5F4F2D
:1005800061E0CE010D960E94F801AE014F5D5F4F14
:1005900062E0CE010D960E94F801AE01475E5F4F0A
:1005A00063E0CE010D960E94F80140E066E0CE01C6
:1005B00001960E94BB0140E065E0CE010D960E94CD
:1005C000BB0163E0CE0101960E94A90162E0CE0169
:1005D00001960E94A90161E0CE0101960E94A90145
:1005E00060E0CE0101960E94A90163E0CE010D9664
:1005F0000E94A90162E0CE010D960E94A90161E06E
:10060000CE010D960E94A90160E0CE010D960E94D8
:10061000A901CE0101960E94E501CE010D960E942E
:10062000D20164EF71E080E090E00E942603CE01E9
:1006300001960E94D201CE010D960E94E50164EF61
:1006400071E080E090E00E942603E3CF41C0683E65
:1006500023E072078105910570F03FEF49E6E8E17C
:1006600031504040E040E1F700C00000685E734058
:10067000810991092DC0643671058105910570F0DD
:10068000FFEF20E732E0F15020403040E1F700C0BA
:10069000000064567109810991091AC06A30710518
:1006A0008105910558F0EFE1FEE43197F1F700C0C4
:1006B00000006A507109810991090AC0EFECF7E066
:1006C0003197F1F700C0000061507109810991096B
:1006D000611571058105910509F0B9CF089537C0FD
:1006E000683E23E072078105910558F0EFECF7E0D2
:1006F0003197F1F700C00000685E734081099109ED
:1007000026C0643671058105910558F0E7ECF0E0EC
:100710003197F1F700C00000645671098109910911
:1007200016C06A3071058105910548F0FAE1FA9525
:10073000F1F700C06A5071098109910908C022E0EF
:100740002A95F1F700C0615071098109910961157D
:1007500071058105910521F6089580B78B7F80BFD3
:100760000895982F907F8F70903B49F018F4903A3D
:10077000A9F018C0903C41F0903D59F013C0A8E397
:10078000B0E0E7E3F0E00EC0A5E3B0E0E4E3F0E0C2
:1007900009C0A2E3B0E0E1E3F0E004C0ABE3B0E005
:1007A000EAE3F0E0613091F018F06230E1F0089592
:1007B000408121E030E0B90102C0660F771F8A95C1
:1007C000E2F7CB018095842380830895408121E066
:1007D00030E0B90102C0660F771F8A95E2F7CB01BE
:1007E000842B80830895408121E030E0B90102C06C
:1007F000660F771F8A95E2F7CB01962F9095942389
:1008000090839C91892B8C930895982F907F8F7063
:10081000903B49F018F4903A79F010C0903C31F0D8
:10082000903D39F00BC0E8E3F0E008C0E5E3F0E00C
:1008300005C0E2E3F0E002C0EBE3F0E0662319F06C
:10084000613079F00895408121E030E0B90102C0C3
:10085000660F771F8A95E2F7CB018095842380830A
:100860000895408121E030E0B90102C0660F771F92
:100870008A95E2F7CB01842B80830895F894FFCF0B
:10088000A7A6A5A4A3A2A1A0000001011F00050026
:1008900000040A0A0704180000000015151E0000D5
:0808A00000020012150F000018
:00000001FF
