S01200004C43445F6472697665722E7372656354
S11300000C942A000C943F000C943F000C943F0085
S11300100C943F000C943F000C943F000C943F0060
S11300200C943F000C943F000C943F000C943F0050
S11300300C943F000C943F000C943F000C943F0040
S11300400C943F000C943F000C943F000C943F0030
S11300500C943F0011241FBECFE5D8E0DEBFCDBF16
S113006010E0A0E6B0E0EEEBFEE002C005900D92D9
S1130070A837B107D9F70E94E1030C945D070C94EB
S11300800000CF92DF92FF920F931F93CF93DF93E1
S1130090CDB7DEB760970FB6F894DEBF0FBECDBF05
S11300A06C018B01F12C11C02F2D30E0F601E20F11
S11300B0F31F8081E9E0F0E0EC0FFD1FE20FF31F76
S11300C0808362E00E943B06F39483E08F1560F71F
S11300D0F12C17C02F2D30E06801C20ED31EF6019B
S11300E08081EDE0F0E0EC0FFD1FE20FF31F808351
S11300F061E00E943B0661E0F60180810E948F0668
S1130100F394F3E0FF1530F788E0FE013996DE0141
S1130110119601900D928A95E1F729813A814B81DC
S11301205C816D817E818F81988560960FB6F8948D
S1130130DEBF0FBECDBFDF91CF911F910F91FF9016
S1130140DF90CF900895BF92CF92DF92EF92FF920B
S11301500F931F93CF93DF937C01B12CC12C2BC041
S11301600C2D10E0F701E00FF11F60E084810E9484
S11301708F06D12C15C0CD2DD0E0F701EC0FFD1F5B
S113018080810E94C80681110AC0CC0FDD1FCC0FEC
S1130190DD1FC859DF4FC00FD11FB880DA94D39444
S11301A083E08D1540F7F701E00FF11F61E08481D2
S11301B00E948F06C39483E08C1590F664E170E08E
S11301C080E090E00E94B0058B2DDF91CF911F91CC
S11301D00F91FF90EF90DF90CF90BF900895AF9272
S11301E0BF92CF92DF92EF92FF920F931F93CF9320
S11301F0DF93EC01B62EA22E67017801642F89816A
S11302000E948F066A2D8A810E948F06888185FD4F
S113021018C029C0212F30E047E050E0421B530BA7
S11302208B2D90E002C0959587954A95E2F7682F4B
S11302306170FE01E20FF31F84810E948F061F5F2D
S113024001C010E0183030F361E08B810E948F060A
S113025068EE73E080E090E00E94F90560E08B8135
S11302600E948F0652C06B2D661F6627661F8C8105
S11302700E948F06B6FA662760F98D810E948F0668
S1130280B5FA662760F98E810E948F06B4FA662754
S113029060F98F810E948F0661E08B810E948F0636
S11302A068EE73E080E090E00E94F90560E08B81E5
S11302B00E948F0668EE73E080E090E00E94F905EA
S11302C0B3FA662760F98C810E948F06B2FA66271A
S11302D060F98D810E948F06B1FA662760F98E81DC
S11302E00E948F066B2D61708F810E948F0661E0E2
S11302F08B810E948F0668EE73E080E090E00E949C
S1130300F90560E08B810E948F06C701B601685130
S11303107C4F8F4F9F4F0E94F905DF91CF911F9122
S11303200F91FF90EF90DF90CF90BF90AF90089522
S11303309F92AF92BF92CF92DF92EF92FF920F9370
S11303401F93CF93DF93CDB7DEB72C970FB6F894F6
S1130350DEBF0FBECDBF6C01B62EA42E922E780147
S113036068EE73E080E090E00E94F9059C82AB8225
S1130370BA8261E0892D0E943B0661E08A2D0E94C9
S11303803B0661E08B2D0E943B0610E012C0812FDA
S113039090E0F701E80FF91F2081A5E0B0E0AC0F71
S11303A0BD1FA80FB91F2C9361E080810E943B06FA
S11303B01F5F183060F3898180668F77898317E225
S11303C0E12EF12C00E010E020E040E068E3CE01F3
S11303D001960E94EF008981837F8F7E8983E12CBF
S11303E0F12C870120E040E068E0CE0101960E94F4
S11303F0EF001AEFE12E15E0F12E00E010E020E00E
S113040040E061E0CE0101960E94EF0020E040E070
S113041062E0CE0101960E94EF00898181608D7FA8
S1130420898317E2E12EF12C00E010E020E040E0A7
S113043066E0CE0101960E94EF008CE0FE01319649
S1130440D60101900D928A95E1F7C6012C960FB65C
S1130450F894DEBF0FBECDBFDF91CF911F910F91F6
S1130460FF90EF90DF90CF90BF90AF909F90089552
S1130470EF92FF920F931F93FC01908194609083FD
S113048093FB662760F970E0660F771F9295917071
S11304906C60692BE12CF12C870120E040E0CF0156
S11304A00E94EF001F910F91FF90EF900895EF923B
S11304B0FF920F931F93FC0190819860908392FBAD
S11304C0662760F970E0660F771F660F771F9295B5
S11304D091706A60692BE12CF12C870120E040E0E7
S11304E0CF010E94EF001F910F91FF90EF900895AC
S11304F0EF92FF920F931F93FC019081977F90835B
S113050092FB662760F970E0660F771F660F771F0E
S1130510929591706860692BE12CF12C870120E0A1
S113052040E0CF010E94EF001F910F91FF90EF90E8
S11305300895EF92FF920F931F93FC0190819061B5
S1130540908392FB662760F970E0660F771F660F51
S1130550771F93FB222720F930E0220F331F6860B6
S1130560262B622F6160E12CF12C870120E040E012
S1130570CF010E94EF001F910F91FF90EF9008951B
S1130580EF92FF920F931F93FC0190819F7E9083C3
S113059092FB662760F970E0660F771F660F771F7E
S11305A093FB222720F930E0220F331F6860622B6F
S11305B0E12CF12C870120E040E0CF010E94EF0004
S11305C01F910F91FF90EF900895EF92FF920F9378
S11305D01F931BE2E12EF12C00E010E020E041E04B
S11305E00E94EF001F910F91FF90EF900895EF92FA
S11305F0FF920F931F9320E4429F600D11246068C3
S113060017E2E12EF12C00E010E020E040E00E942F
S1130610EF001F910F91FF90EF900895EF92FF92DA
S11306200F931F931AEFE12E15E0F12E00E010E076
S113063020E040E061E00E94EF001F910F91FF90E5
S1130640EF900895EF92FF920F931F931AEFE12E0C
S113065015E0F12E00E010E020E040E062E00E94AE
S1130660EF001F910F91FF90EF9008958F929F924A
S1130670AF92BF92CF92DF92EF92FF920F931F93AC
S1130680CF93DF93EC01CB01BA0199234CF49095FD
S11306908095709561957F4F8F4F9F4F01E001C00A
S11306A000E010E0C12CD12C76011F5FCC0CDD1CC6
S11306B0EE1CFF1C46015701880C991CAA1CBB1C8C
S11306C0880C991CAA1CBB1CC80CD91CEA1CFB1C5A
S11306D02AE030E040E050E00E940207C60ED71E38
S11306E0E81EF91E622F732F842F952F6115710553
S11306F081059105D1F60130D1F46DE2CE010E945D
S1130700E50215C0C701B6012AE030E040E050E040
S11307100E940207922EA32EB42E052F605DCE01F7
S11307200E94E502C92CDA2CEB2CF02E1150111189
S1130730E9CFDF91CF911F910F91FF90EF90DF9060
S1130740CF90BF90AF909F908F900895CF92DF92FB
S1130750EF92FF920F931F93680179018B3249F056
S113076018F48A32A1F023C08D3251F08F32B1F0E7
S11307701EC0CB01BA01600F711F821F931F1AC0E4
S1130780CB01BA01601B710B820B930B13C09A014E
S1130790AB01C701B6010E94F2060CC0CB01BA013D
S11307A0A90198010E940207CA01B90103C060E0CF
S11307B070E0CB011F910F91FF90EF90DF90CF90ED
S11307C00895CF93DF93CDB7DEB7C858D2400FB6A4
S11307D0F894DEBF0FBECDBF0E94370688E0E0E686
S11307E0F0E0DE01A359BD4F01900D928A95E1F727
S11307F08E0103591D4F22EB41EB60EBCE01835870
S11308009D4F0E9498018CE0FE01E358FD4FDE01EC
S1130810119601900D928A95E1F7CE0101960E94FE
S11308203802CE0101960E945702CE0101960E9421
S1130830990284ECC758DD4F8883C957D24085ECB0
S1130840C658DD4F8883CA57D24086ECC558DD4F61
S11308508883CB57D24087ECC458DD4F8883CC576C
S1130860D24080ECCB58DD4F8883C557D24081EC11
S1130870CA58DD4F8883C657D24082ECC958DD4F31
S11308808883C757D24083ECC858DD4F8883C85744
S1130890D240BE0167587D4FCE018B589D4F0E94B8
S11308A041002D873E874F87588B698B7A8B8B8BC2
S11308B09C8B01E0E12CCE010D960E94A300182F21
S11308C0011115C08334B9F7CE0101960E940E03BD
S11308D0CE0101960E942203CE0101960E94570286
S11308E0CE0101960E94990201E0E12CE4CF0F2E83
S11308F0F3E6AF2EF02DAE14C0F180ED810F8A30F7
S113090070F4E5E1F0E0EC0FFD1FEE0DF11D108336
S1130910E394612FCE0101960E94E50226C01B32AA
S113092031F01D3221F01F3211F01A32F1F4EE20B1
S1130930E1F08E2D90E0FC0131970F2EF5E1CF2EE2
S1130940D12CF02DCC0EDD1EEC0DFD1D20812033AD
S113095060F02A3350F4F601E80FF91F1083E39492
S1130960612FCE0101960E94E502133459F4CE01A1
S113097001960E940E03CE0101960E94220301E01B
S1130980E12C99CF1D3309F096CFED961CAE1DAE28
S11309901EAE1FAEED9720E0F12C7BC0E5E1F0E048
S11309A0EC0FFD1FE20FF11D808190ED980F9A303E
S11309B0C0F5EF2DF0E0AF01440F551F440F551F54
S11309C0E40FF51F49E750E04C0F5D1FE40FF51FDE
S11309D04081518162817381440F551F661F771FC7
S11309E04A015B01880C991CAA1CBB1C880C991C2D
S11309F0AA1CBB1C480D591D6A1D7B1D5A016B01A5
S1130A00A80EB11CC11CD11CD601C501C097A109F7
S1130A10B10980839183A283B383848181608483B9
S1130A2037C08B3231F08D3221F08F3211F08A329F
S1130A3079F5E1E0EF0DF0E0AF01440F551F440FED
S1130A40551FE40FF51F0F2EF9E7CF2ED12CF02DF3
S1130A50CC0EDD1EEC0DFD1D90E0A0E0B0E0808327
S1130A609183A283B38384818E7F8483F394F394EC
S1130A708F2D90E0FC01EE0FFF1FEE0FFF1F8E0F76
S1130A809F1FF601E80FF91F108211821282138250
S1130A902F5F2E1508F482CFED964CAC5DAC6EAC96
S1130AA07FACED979924939442C0892D90E0FC018A
S1130AB0EE0FFF1FEE0FFF1FE80FF91F29E730E0CD
S1130AC02C0F3D1FE20FF31F248120FD2FC09C013A
S1130AD02F5F3F4F6901CC0CDD1CCC0CDD1CC20E1A
S1130AE0D31E49E750E04C0F5D1FC40ED51EF6011E
S1130AF000811181228133815C01AA0CBB1CAA0CE8
S1130B00BB1CA80EB91EA40EB51EB301A201F501AB
S1130B1080810E94A6032B013C01F501848182603F
S1130B208483F601848182608483939493949F14D4
S1130B3008F4BBCF41E060E0CE0101960E94F702C9
S1130B40B301A201CE0101960E943603CE010196A3
S1130B500E947802CE0101960E94C00200E0ABCE52
S1130B6041C0683E23E072078105910570F03FEFB4
S1130B7049E6E8E131504040E040E1F700C00000C0
S1130B80685E7340810991092DC064367105810541
S1130B90910570F0FFEF20E732E0F1502040304043
S1130BA0E1F700C0000064567109810991091AC077
S1130BB06A3071058105910558F0EFE1FEE4319743
S1130BC0F1F700C000006A507109810991090AC057
S1130BD0EFECF7E03197F1F700C0000061507109C4
S1130BE081099109611571058105910509F0B9CF54
S1130BF0089537C0683E23E072078105910558F0D7
S1130C00EFECF7E03197F1F700C00000685E734045
S1130C108109910926C0643671058105910558F052
S1130C20E7ECF0E03197F1F700C000006456710979
S1130C308109910916C06A3071058105910548F052
S1130C40FAE1FA95F1F700C06A5071098109910936
S1130C5008C022E02A95F1F700C0615071098109AA
S1130C609109611571058105910521F6089580B7F3
S1130C708B7F80BF0895982F907F8F70903B49F0B1
S1130C8018F4903AA9F018C0903C41F0903D59F006
S1130C9013C0A8E3B0E0E7E3F0E00EC0A5E3B0E0E2
S1130CA0E4E3F0E009C0A2E3B0E0E1E3F0E004C073
S1130CB0ABE3B0E0EAE3F0E0613091F018F06230C9
S1130CC0E1F00895408121E030E0B90102C0660FEF
S1130CD0771F8A95E2F7CB0180958423808308955A
S1130CE0408121E030E0B90102C0660F771F8A9588
S1130CF0E2F7CB01842B80830895408121E030E02A
S1130D00B90102C0660F771F8A95E2F7CB01962FCF
S1130D109095942390839C91892B8C930895982F7C
S1130D20907F8F70903B49F018F4903A79F010C09E
S1130D30903C31F0903D39F00BC0E8E3F0E008C09E
S1130D40E5E3F0E005C0E2E3F0E002C0EBE3F0E04D
S1130D50662319F0613079F00895408121E030E094
S1130D60B90102C0660F771F8A95E2F7CB0180951F
S1130D70842380830895408121E030E0B90102C0DA
S1130D80660F771F8A95E2F7CB01842B8083089541
S1130D90982F907F282F2F70903B59F018F4903A99
S1130DA089F004C0903C41F0903D49F0E0E0F0E06F
S1130DB00BC0E6E3F0E008C0E3E3F0E005C0E0E3E5
S1130DC0F0E002C0E9E3F0E09081892F90E002C0F6
S1130DD0959587952A95E2F780FD02C080E00895F5
S1130DE081E00895DB018F939F930E942107BF91B7
S1130DF0AF91A29F800D911DA39F900DB29F900D66
S1130E0011240895052E97FB1EF400940E941907DF
S1130E1057FD07D00E942C0707FC03D04EF40C9416
S1130E20190750954095309521953F4F4F4F5F4F8F
S1130E30089590958095709561957F4F8F4F9F4F42
S1130E4008950E944E07A59F900DB49F900DA49FF6
S1130E50800D911D11240895A1E21A2EAA1BBB1B1B
S1130E60FD010DC0AA1FBB1FEE1FFF1FA217B30772
S1130E70E407F50720F0A21BB30BE40BF50B661F88
S1130E80771F881F991F1A9469F76095709580954C
S1130E9090959B01AC01BD01CF010895A29FB001C3
S1130EA0B39FC001A39F700D811D1124911DB29F9A
S1110EB0700D811D1124911D0895F894FFCF3B
S1130EBEA7A6A5A4A3A2A1A03738392F3435362A64
S10B0ECE3132332D43303D2B7A
S9030000FC
