:100000000C942A000C94BC010C94E5010C940E0293
:100010000C9447000C9447000C9437020C94470052
:100020000C9447000C941C030C9447000C9447005C
:100030000C9447000C9447000C9447000C94470024
:100040000C94AC000C9447000C9447000C944700AF
:100050000C94470011241FBECFE5D8E0DEBFCDBF12
:1000600010E0A0E6B0E0EEECF6E002C005900D92E4
:10007000A037B107D9F720E0A0E7B0E001C01D929A
:10008000AD37B207E1F70E948C000C9465030C9425
:100090000000CF93DF93C82FD62F61E00E942F017D
:1000A0008C2F9D2FDF91CF910895FC012181222378
:1000B00039F0213051F461E080810E94830108957C
:1000C00060E0FC0180810E9483010895FC01218190
:1000D000222339F0213051F460E080810E948301B5
:1000E000089561E0FC0180810E948301089581B53B
:1000F000816081BD81B5826081BD81B5846081BD33
:1001000081B5886081BD089591B581B59861877F7B
:10011000806191BD81BD0895CF93DF9300D0CDB7AD
:10012000DEB70E942B0161E080EB0E9449009A83B8
:100130008983CE0101960E94550064EF71E080E052
:1001400090E00E94E200CE0101960E9466000E94AB
:1001500077000E948400FDCF1F920F920FB60F927E
:1001600011242F933F934F935F936F937F938F93BC
:100170009F93AF93BF93EF93FF93E0917000F09143
:100180007100309771F084B165B170E0762F662709
:10019000680F711D072E000C880B990B309709F022
:1001A0000995FF91EF91BF91AF919F918F917F91B1
:1001B0006F915F914F913F912F910F900FBE0F90D4
:1001C0001F90189541C0683E23E072078105910594
:1001D00070F03FEF49E6E8E131504040E040E1F7A0
:1001E00000C00000685E7340810991092DC064362B
:1001F00071058105910570F0FFEF20E732E0F150C5
:1002000020403040E1F700C00000645671098109C8
:1002100091091AC06A3071058105910558F0EFE126
:10022000FEE43197F1F700C000006A5071098109BE
:1002300091090AC0EFECF7E03197F1F700C0000038
:100240006150710981099109611571058105910557
:1002500009F0B9CF089580B78B7F80BF0895982F9C
:10026000907F8F70903B49F018F4903AA9F018C035
:10027000903C41F0903D59F013C0A8E3B0E0E7E3B3
:10028000F0E00EC0A5E3B0E0E4E3F0E009C0A2E3D3
:10029000B0E0E1E3F0E004C0ABE3B0E0EAE3F0E0BB
:1002A000613091F018F06230E1F00895408121E072
:1002B00030E0B90102C0660F771F8A95E2F7CB01E3
:1002C0008095842380830895408121E030E0B90146
:1002D00002C0660F771F8A95E2F7CB01842B8083DB
:1002E0000895408121E030E0B90102C0660F771F18
:1002F0008A95E2F7CB01962F9095942390839C9159
:10030000892B8C930895982F907F8F70903B49F0A4
:1003100018F4903A79F010C0903C31F0903D39F0EB
:100320000BC0E8E3F0E008C0E5E3F0E005C0E2E37D
:10033000F0E002C0EBE3F0E0662319F0613079F001
:100340000895408121E030E0B90102C0660F771FB7
:100350008A95E2F7CB0180958423808308954081BC
:1003600021E030E0B90102C0660F771F8A95E2F7FD
:10037000CB01842B808308951F920F920FB60F92AA
:1003800011242F933F934F935F936F937F938F939A
:100390009F93AF93BF93EF93FF93E0917600F0911B
:1003A0007700309709F00995FF91EF91BF91AF91D8
:1003B0009F918F917F916F915F914F913F912F917D
:1003C0000F900FBE0F901F9018951F920F920FB6AF
:1003D0000F9211242F933F934F935F936F937F93CB
:1003E0008F939F93AF93BF93EF93FF93E09174002C
:1003F000F0917500309709F00995FF91EF91BF9149
:10040000AF919F918F917F916F915F914F913F91AC
:100410002F910F900FBE0F901F9018951F920F9263
:100420000FB60F9211242F933F934F935F936F93C7
:100430007F938F939F93AF93BF93EF93FF93E0913D
:100440007200F0917300309709F00995FF91EF91D8
:10045000BF91AF919F918F917F916F915F914F91DC
:100460003F912F910F900FBE0F901F9018951F92E4
:100470000F920FB60F9211242F923F924F925F92DC
:100480006F927F928F929F92AF92BF92CF92DF92A4
:10049000EF92FF920F931F932F933F934F935F938E
:1004A0006F937F938F939F93AF93BF93CF93DF937C
:1004B000EF93FF93809178008130B1F020F082308B
:1004C00009F455C096C081E0809378001DBC1CBC27
:1004D0008EB58F7B8EBD1092790010927A001092AB
:1004E0007B0010927C0085C082E0809378002CB461
:1004F0003DB42091790030917A0040917B00509179
:100500007C00AFEFBFEF0E944203DC01CB01282F3C
:10051000392F4A2F5B2F60E070E080E090E0A22C42
:10052000B32CC12CD12CE12CF12C00E010E00E9466
:100530004D03209368003093690040936A00509304
:100540006B0060936C0070936D0080936E009093CD
:100550006F001DBC1CBC1092790010927A001092A2
:100560007B0010927C008EB580648EBD42C081E01D
:10057000809378002CB43DB42091790030917A00BA
:1005800040917B0050917C00AFEFBFEF0E9442038F
:10059000DC01CB01282F392F4A2F5B2F60E070E060
:1005A00080E090E0A22CB32CC12CD12CE12CF12CBA
:1005B00000E010E00E944D03209360003093610042
:1005C00040936200509363006093640070936500F1
:1005D00080936600909367001DBC1CBC109279004C
:1005E00010927A0010927B0010927C008EB58F7B67
:1005F0008EBDFF91EF91DF91CF91BF91AF919F9110
:100600008F917F916F915F914F913F912F911F91AA
:100610000F91FF90EF90DF90CF90BF90AF909F90A1
:100620008F907F906F905F904F903F902F900F90A2
:100630000FBE0F901F90189578941F920F920FB6CF
:100640000F9211248F939F93AF93BF938091790062
:1006500090917A00A0917B00B0917C000196A11D41
:10066000B11D8093790090937A00A0937B00B093A2
:100670007C00BF91AF919F918F910F900FBE0F9013
:100680001F9018950E945603A59F900DB49F900D42
:10069000A49F800D911D112408952A0D3B1D4C1D12
:1006A0005D1D6E1D7F1D801F911F0895A29FB001CB
:1006B000B39FC001A39F700D811D1124911DB29F96
:0E06C000700D811D1124911D0895F894FFCF37
:1006CE00010000000000000001000000000000001A
:00000001FF
