S01200004C43445F6472697665722E7372656354
S11300000C942A000C943F000C943F000C943F0085
S11300100C943F000C943F000C943F000C943F0060
S11300200C943F000C943F000C943F000C943F0050
S11300300C943F000C943F000C943F000C943F0040
S11300400C943F000C943F000C943F000C943F0030
S11300500C943F0011241FBECFE5D8E0DEBFCDBF16
S113006010E0A0E6B0E0EAEBF7E002C005900D92E4
S1130070A038B107D9F70E9406020C94DB030C9454
S11300800000AF92BF92CF92DF92EF92FF920F9354
S11300901F93CF93DF93EC01B62EA22E6701780154
S11300A0642F89810E947A036A2D8A810E947A03CF
S11300B0888185FD18C029C0212F30E047E050E039
S11300C0421B530B8B2D90E002C0959587954A9562
S11300D0E2F7682F6170FE01E20FF31F84810E9432
S11300E07A031F5F01C010E0183030F361E08B81A8
S11300F00E947A0368EE73E080E090E00E94E402DC
S113010060E08B810E947A0352C06B2D661F6627C4
S1130110661F8C810E947A03B6FA662760F98D8186
S11301200E947A03B5FA662760F98E810E947A03E9
S1130130B4FA662760F98F810E947A0361E08B81AB
S11301400E947A0368EE73E080E090E00E94E4028B
S113015060E08B810E947A0368EE73E080E090E0B7
S11301600E94E402B3FA662760F98C810E947A0344
S1130170B2FA662760F98D810E947A03B1FA662784
S113018060F98E810E947A036B2D61708F810E94C9
S11301907A0361E08B810E947A0368EE73E080E069
S11301A090E00E94E40260E08B810E947A03C70120
S11301B0B60168517C4F8F4F9F4F0E94E402DF913C
S11301C0CF911F910F91FF90EF90DF90CF90BF9050
S11301D0AF9008959F92AF92BF92CF92DF92EF9229
S11301E0FF920F931F93CF93DF93CDB7DEB72C9776
S11301F00FB6F894DEBF0FBECDBF6C01B62EA42E91
S1130200922E780168EE73E080E090E00E94E402B0
S11302109C82AB82BA8261E0892D0E94260361E050
S11302208A2D0E94260361E08B2D0E94260310E094
S113023012C0812F90E0F701E80FF91F2081A5E09B
S1130240B0E0AC0FBD1FA80FB91F2C9361E08081F3
S11302500E9426031F5F183060F3898180668F77C0
S1130260898317E2E12EF12C00E010E020E040E069
S113027068E3CE0101960E9441008981837F8F7ECD
S11302808983E12CF12C870120E040E068E0CE0175
S113029001960E9441001AEFE12E15E0F12E00E0D4
S11302A010E020E040E061E0CE0101960E944100B0
S11302B020E040E062E0CE0101960E944100898185
S11302C081608D7F898317E2E12EF12C00E010E03C
S11302D020E040E066E0CE0101960E9441008CE0FF
S11302E0FE013196D60101900D928A95E1F7C6017F
S11302F02C960FB6F894DEBF0FBECDBFDF91CF9121
S11303001F910F91FF90EF90DF90CF90BF90AF902F
S11303109F900895EF92FF920F931F93FC01908199
S11303209460908393FB662760F970E0660F771FF3
S1130330929591706C60692BE12CF12C870120E07F
S113034040E0CF010E9441001F910F91FF90EF9078
S11303500895EF92FF920F931F931BE2E12EF12C6D
S113036000E010E020E041E00E9441001F910F9165
S1130370FF90EF900895EF92FF920F931F9320E464
S1130380429F600D1124606817E2E12EF12C00E019
S113039010E020E040E00E9441001F910F91FF9087
S11303A0EF900895AF92BF92CF92DF92EF92FF92B7
S11303B00F931F93CF936C015A01660F660F660F5C
S11303C06F73606417E2E12EF12C00E010E020E08E
S11303D040E00E944100C0E008C0F501EC0FF11DAF
S11303E06081C6010E94A901CF5FC830B0F340E02C
S11303F060E0C6010E94BB01CF911F910F91FF9055
S1130400EF90DF90CF90BF90AF900895CF93DF939C
S1130410CDB7DEB7E8970FB6F894DEBF0FBECDBFF9
S11304200E94220388E0E0E6F0E0DE019596019068
S11304300D928A95E1F78E010B5D1F4F23EB42EB82
S113044061EBCE018D960E94EA008CE0FE01BD9620
S1130450DE01119601900D928A95E1F7CE01019685
S11304600E948A0188E0E8E6F0E0DE015D960190F2
S11304700D928A95E1F788E0E0E7F0E0DE01559619
S113048001900D928A95E1F788E0E8E7F0E0DE015B
S11304901D9601900D928A95E1F7AE01435E5F4F80
S11304A060E0CE0101960E94D201AE014B5E5F4F27
S11304B061E0CE0101960E94D201AE01435F5F4F1D
S11304C062E0CE0101960E94D20160E0CE01019665
S11304D00E94A90110E040E060E0CE0101960E9474
S11304E0BB01612FCE0101960E94A901812F90E0EA
S11304F001960F2EF3E0EF2EF12CF02DB7010E94A0
S1130500B3038C0141E060E0CE0101960E94BB017F
S1130510602FCE0101960E94A901C8019927019676
S1130520B7010E94B303182F68EC70E080E090E0FC
S11305300E949B02D0CF41C0683E23E07207810530
S1130540910570F03FEF49E6E8E131504040E0406A
S1130550E1F700C00000685E7340810991092DC075
S1130560643671058105910570F0FFEF20E732E0F4
S1130570F15020403040E1F700C00000645671099A
S1130580810991091AC06A3071058105910558F0F5
S1130590EFE1FEE43197F1F700C000006A50710901
S11305A0810991090AC0EFECF7E03197F1F700C037
S11305B00000615071098109910961157105810576
S11305C0910509F0B9CF089537C0683E23E072075A
S11305D08105910558F0EFECF7E03197F1F700C091
S11305E00000685E73408109910926C06436710574
S11305F08105910558F0E7ECF0E03197F1F700C080
S11306000000645671098109910916C06A307105A8
S11306108105910548F0FAE1FA95F1F700C06A50B6
S113062071098109910908C022E02A95F1F700C0F7
S1130630615071098109910961157105810591055F
S113064021F6089580B78B7F80BF0895982F907FFF
S11306508F70903B49F018F4903AA9F018C0903C80
S113066041F0903D59F013C0A8E3B0E0E7E3F0E0B7
S11306700EC0A5E3B0E0E4E3F0E009C0A2E3B0E01B
S1130680E1E3F0E004C0ABE3B0E0EAE3F0E06130C2
S113069091F018F06230E1F00895408121E030E0FB
S11306A0B90102C0660F771F8A95E2F7CB018095E6
S11306B0842380830895408121E030E0B90102C0A1
S11306C0660F771F8A95E2F7CB01842B8083089508
S11306D0408121E030E0B90102C0660F771F8A959E
S11306E0E2F7CB01962F9095942390839C91892BCC
S11306F08C930895982F907F8F70903B49F018F455
S1130700903A79F010C0903C31F0903D39F00BC034
S1130710E8E3F0E008C0E5E3F0E005C0E2E3F0E080
S113072002C0EBE3F0E0662319F0613079F008953C
S1130730408121E030E0B90102C0660F771F8A953D
S1130740E2F7CB018095842380830895408121E0E2
S113075030E0B90102C0660F771F8A95E2F7CB013A
S1130760842B8083089597FB072E16F4009407D0FA
S113077077FD09D00E94C70307FC05D03EF490958D
S113078081959F4F0895709561957F4F0895AA1B99
S1130790BB1B51E107C0AA1FBB1FA617B70710F068
S11307A0A61BB70B881F991F5A95A9F7809590959A
S10D07B0BC01CD010895F894FFCFB9
S11307BAA7A6A5A4A3A2A1A0040A11040A110000D1
S11307CA0A11040A11040A0011040A11040A110084
S9030000FC
